{
    "contractName": "Engine",
    "abi": [
        {
            "inputs": [
                {
                    "internalType": "address",
                    "name": "_tcUSD",
                    "type": "address"
                }
            ],
            "stateMutability": "nonpayable",
            "type": "constructor"
        },
        {
            "inputs": [],
            "name": "Engine__BreaksHealthFactor",
            "type": "error"
        },
        {
            "inputs": [],
            "name": "Engine__CollateralExisted",
            "type": "error"
        },
        {
            "inputs": [],
            "name": "Engine__ExceedsAllowedAmount",
            "type": "error"
        },
        {
            "inputs": [],
            "name": "Engine__HealthFactorOk",
            "type": "error"
        },
        {
            "inputs": [],
            "name": "Engine__InsufficientBalance",
            "type": "error"
        },
        {
            "inputs": [],
            "name": "Engine__InvalidCollateral",
            "type": "error"
        },
        {
            "inputs": [],
            "name": "Engine__InvalidPriceFeed",
            "type": "error"
        },
        {
            "inputs": [],
            "name": "Engine__InvalidVault",
            "type": "error"
        },
        {
            "inputs": [],
            "name": "Engine__OnlyPositionOwner",
            "type": "error"
        },
        {
            "inputs": [],
            "name": "Engine__PositionNotExists",
            "type": "error"
        },
        {
            "anonymous": false,
            "inputs": [
                {
                    "indexed": true,
                    "internalType": "uint64",
                    "name": "vaultId",
                    "type": "uint64"
                },
                {
                    "indexed": true,
                    "internalType": "address",
                    "name": "from",
                    "type": "address"
                },
                {
                    "indexed": false,
                    "internalType": "uint256",
                    "name": "amount",
                    "type": "uint256"
                }
            ],
            "name": "Deposit",
            "type": "event"
        },
        {
            "anonymous": false,
            "inputs": [
                {
                    "indexed": true,
                    "internalType": "address",
                    "name": "previousOwner",
                    "type": "address"
                },
                {
                    "indexed": true,
                    "internalType": "address",
                    "name": "newOwner",
                    "type": "address"
                }
            ],
            "name": "OwnershipTransferred",
            "type": "event"
        },
        {
            "anonymous": false,
            "inputs": [
                {
                    "indexed": true,
                    "internalType": "uint256",
                    "name": "positionId",
                    "type": "uint256"
                },
                {
                    "indexed": true,
                    "internalType": "address",
                    "name": "owner",
                    "type": "address"
                },
                {
                    "indexed": false,
                    "internalType": "uint256",
                    "name": "amountCollateral",
                    "type": "uint256"
                },
                {
                    "indexed": false,
                    "internalType": "uint256",
                    "name": "amountToBorrow",
                    "type": "uint256"
                }
            ],
            "name": "PositionCanceled",
            "type": "event"
        },
        {
            "anonymous": false,
            "inputs": [
                {
                    "indexed": true,
                    "internalType": "uint256",
                    "name": "positionId",
                    "type": "uint256"
                },
                {
                    "indexed": true,
                    "internalType": "address",
                    "name": "owner",
                    "type": "address"
                },
                {
                    "indexed": false,
                    "internalType": "uint256",
                    "name": "amountCollateral",
                    "type": "uint256"
                },
                {
                    "indexed": false,
                    "internalType": "uint256",
                    "name": "amountToBorrow",
                    "type": "uint256"
                }
            ],
            "name": "PositionCreated",
            "type": "event"
        },
        {
            "anonymous": false,
            "inputs": [
                {
                    "indexed": true,
                    "internalType": "uint256",
                    "name": "positionId",
                    "type": "uint256"
                },
                {
                    "indexed": false,
                    "internalType": "uint256",
                    "name": "amountTcUSDToCover",
                    "type": "uint256"
                },
                {
                    "indexed": false,
                    "internalType": "uint256",
                    "name": "amountCollateralEarned",
                    "type": "uint256"
                }
            ],
            "name": "PositionFullyLiquidated",
            "type": "event"
        },
        {
            "anonymous": false,
            "inputs": [
                {
                    "indexed": true,
                    "internalType": "uint256",
                    "name": "positionId",
                    "type": "uint256"
                },
                {
                    "indexed": false,
                    "internalType": "uint256",
                    "name": "amountTcUSDToCover",
                    "type": "uint256"
                },
                {
                    "indexed": false,
                    "internalType": "uint256",
                    "name": "amountCollateralEarned",
                    "type": "uint256"
                }
            ],
            "name": "PositionPartialLiquidated",
            "type": "event"
        },
        {
            "anonymous": false,
            "inputs": [
                {
                    "indexed": true,
                    "internalType": "uint256",
                    "name": "positionId",
                    "type": "uint256"
                },
                {
                    "indexed": false,
                    "internalType": "uint256",
                    "name": "amountCollateralToStrengthen",
                    "type": "uint256"
                }
            ],
            "name": "StrengthenPositon",
            "type": "event"
        },
        {
            "anonymous": false,
            "inputs": [
                {
                    "indexed": true,
                    "internalType": "uint64",
                    "name": "vaultId",
                    "type": "uint64"
                },
                {
                    "indexed": false,
                    "internalType": "address",
                    "name": "collateralAddress",
                    "type": "address"
                }
            ],
            "name": "VaultCreated",
            "type": "event"
        },
        {
            "anonymous": false,
            "inputs": [
                {
                    "indexed": true,
                    "internalType": "uint64",
                    "name": "vaultId",
                    "type": "uint64"
                },
                {
                    "indexed": true,
                    "internalType": "address",
                    "name": "to",
                    "type": "address"
                },
                {
                    "indexed": false,
                    "internalType": "uint256",
                    "name": "amount",
                    "type": "uint256"
                }
            ],
            "name": "Withdraw",
            "type": "event"
        },
        {
            "inputs": [
                {
                    "internalType": "uint256",
                    "name": "positionId",
                    "type": "uint256"
                }
            ],
            "name": "cancelPosition",
            "outputs": [],
            "stateMutability": "nonpayable",
            "type": "function"
        },
        {
            "inputs": [
                {
                    "internalType": "address",
                    "name": "owner",
                    "type": "address"
                }
            ],
            "name": "countPosition",
            "outputs": [
                {
                    "internalType": "uint256",
                    "name": "",
                    "type": "uint256"
                }
            ],
            "stateMutability": "view",
            "type": "function"
        },
        {
            "inputs": [
                {
                    "internalType": "uint64",
                    "name": "vaultId",
                    "type": "uint64"
                },
                {
                    "internalType": "uint256",
                    "name": "amountCollateral",
                    "type": "uint256"
                },
                {
                    "internalType": "uint256",
                    "name": "amountToBorrow",
                    "type": "uint256"
                }
            ],
            "name": "createPosition",
            "outputs": [],
            "stateMutability": "nonpayable",
            "type": "function"
        },
        {
            "inputs": [
                {
                    "internalType": "contract IERC20",
                    "name": "collateral",
                    "type": "address"
                },
                {
                    "internalType": "address",
                    "name": "priceFeed",
                    "type": "address"
                }
            ],
            "name": "createVault",
            "outputs": [
                {
                    "internalType": "address",
                    "name": "",
                    "type": "address"
                }
            ],
            "stateMutability": "nonpayable",
            "type": "function"
        },
        {
            "inputs": [
                {
                    "internalType": "uint64",
                    "name": "vaultId",
                    "type": "uint64"
                },
                {
                    "internalType": "uint256",
                    "name": "amount",
                    "type": "uint256"
                }
            ],
            "name": "depositCollateral",
            "outputs": [],
            "stateMutability": "payable",
            "type": "function"
        },
        {
            "inputs": [],
            "name": "getAllLowHealthFactorPositions",
            "outputs": [
                {
                    "internalType": "uint256[]",
                    "name": "",
                    "type": "uint256[]"
                }
            ],
            "stateMutability": "view",
            "type": "function"
        },
        {
            "inputs": [
                {
                    "internalType": "address",
                    "name": "owner",
                    "type": "address"
                }
            ],
            "name": "getAllPositionExists",
            "outputs": [
                {
                    "internalType": "uint256[]",
                    "name": "",
                    "type": "uint256[]"
                }
            ],
            "stateMutability": "view",
            "type": "function"
        },
        {
            "inputs": [
                {
                    "internalType": "uint64",
                    "name": "vaultId",
                    "type": "uint64"
                }
            ],
            "name": "getAmountCanBorrow",
            "outputs": [
                {
                    "internalType": "uint256",
                    "name": "",
                    "type": "uint256"
                }
            ],
            "stateMutability": "view",
            "type": "function"
        },
        {
            "inputs": [
                {
                    "internalType": "uint64",
                    "name": "vaultId",
                    "type": "uint64"
                },
                {
                    "internalType": "uint256",
                    "name": "collateralAmount",
                    "type": "uint256"
                }
            ],
            "name": "getCalculateAmountToBorrow",
            "outputs": [
                {
                    "internalType": "uint256",
                    "name": "",
                    "type": "uint256"
                }
            ],
            "stateMutability": "view",
            "type": "function"
        },
        {
            "inputs": [
                {
                    "internalType": "uint256",
                    "name": "amountBorrow",
                    "type": "uint256"
                },
                {
                    "internalType": "uint256",
                    "name": "collateralValueInUSD",
                    "type": "uint256"
                }
            ],
            "name": "getCalculateHealthFactor",
            "outputs": [
                {
                    "internalType": "uint256",
                    "name": "",
                    "type": "uint256"
                }
            ],
            "stateMutability": "pure",
            "type": "function"
        },
        {
            "inputs": [
                {
                    "internalType": "address",
                    "name": "collateral",
                    "type": "address"
                },
                {
                    "internalType": "uint256",
                    "name": "usdAmountInWei",
                    "type": "uint256"
                }
            ],
            "name": "getCollateralAmountFromValue",
            "outputs": [
                {
                    "internalType": "uint256",
                    "name": "",
                    "type": "uint256"
                }
            ],
            "stateMutability": "view",
            "type": "function"
        },
        {
            "inputs": [
                {
                    "internalType": "uint64",
                    "name": "vaultId",
                    "type": "uint64"
                }
            ],
            "name": "getCollateralDeposited",
            "outputs": [
                {
                    "internalType": "uint256",
                    "name": "",
                    "type": "uint256"
                }
            ],
            "stateMutability": "view",
            "type": "function"
        },
        {
            "inputs": [],
            "name": "getCurrentPositionId",
            "outputs": [
                {
                    "internalType": "uint256",
                    "name": "",
                    "type": "uint256"
                }
            ],
            "stateMutability": "view",
            "type": "function"
        },
        {
            "inputs": [],
            "name": "getCurrentVaultId",
            "outputs": [
                {
                    "internalType": "uint64",
                    "name": "",
                    "type": "uint64"
                }
            ],
            "stateMutability": "view",
            "type": "function"
        },
        {
            "inputs": [
                {
                    "internalType": "uint256",
                    "name": "positionId",
                    "type": "uint256"
                }
            ],
            "name": "getPositionHealthFactor",
            "outputs": [
                {
                    "internalType": "uint256",
                    "name": "",
                    "type": "uint256"
                }
            ],
            "stateMutability": "view",
            "type": "function"
        },
        {
            "inputs": [
                {
                    "internalType": "address",
                    "name": "collateral",
                    "type": "address"
                },
                {
                    "internalType": "uint256",
                    "name": "amount",
                    "type": "uint256"
                }
            ],
            "name": "getUSDValueOfCollateral",
            "outputs": [
                {
                    "internalType": "uint256",
                    "name": "",
                    "type": "uint256"
                }
            ],
            "stateMutability": "view",
            "type": "function"
        },
        {
            "inputs": [
                {
                    "internalType": "uint256",
                    "name": "positionId",
                    "type": "uint256"
                }
            ],
            "name": "getUniquePosition",
            "outputs": [
                {
                    "internalType": "uint64",
                    "name": "vaultId",
                    "type": "uint64"
                },
                {
                    "internalType": "address",
                    "name": "owner",
                    "type": "address"
                },
                {
                    "internalType": "uint256",
                    "name": "amountCollateral",
                    "type": "uint256"
                },
                {
                    "internalType": "uint256",
                    "name": "amountToBorrow",
                    "type": "uint256"
                },
                {
                    "internalType": "uint256",
                    "name": "healthFactor",
                    "type": "uint256"
                }
            ],
            "stateMutability": "view",
            "type": "function"
        },
        {
            "inputs": [
                {
                    "internalType": "uint256",
                    "name": "positionId",
                    "type": "uint256"
                }
            ],
            "name": "getUniquePositionExists",
            "outputs": [
                {
                    "internalType": "bool",
                    "name": "",
                    "type": "bool"
                }
            ],
            "stateMutability": "view",
            "type": "function"
        },
        {
            "inputs": [
                {
                    "internalType": "uint64",
                    "name": "vaultId",
                    "type": "uint64"
                }
            ],
            "name": "getVaultAddress",
            "outputs": [
                {
                    "internalType": "address",
                    "name": "",
                    "type": "address"
                }
            ],
            "stateMutability": "view",
            "type": "function"
        },
        {
            "inputs": [
                {
                    "internalType": "uint64",
                    "name": "vaultId",
                    "type": "uint64"
                }
            ],
            "name": "getVaultBalance",
            "outputs": [
                {
                    "internalType": "uint256",
                    "name": "",
                    "type": "uint256"
                }
            ],
            "stateMutability": "view",
            "type": "function"
        },
        {
            "inputs": [
                {
                    "internalType": "uint256",
                    "name": "positionId",
                    "type": "uint256"
                },
                {
                    "internalType": "uint256",
                    "name": "amountTcUSDToCover",
                    "type": "uint256"
                }
            ],
            "name": "liquidatePosition",
            "outputs": [],
            "stateMutability": "payable",
            "type": "function"
        },
        {
            "inputs": [],
            "name": "owner",
            "outputs": [
                {
                    "internalType": "address",
                    "name": "",
                    "type": "address"
                }
            ],
            "stateMutability": "view",
            "type": "function"
        },
        {
            "inputs": [],
            "name": "renounceOwnership",
            "outputs": [],
            "stateMutability": "nonpayable",
            "type": "function"
        },
        {
            "inputs": [
                {
                    "internalType": "uint64",
                    "name": "vaultId",
                    "type": "uint64"
                },
                {
                    "internalType": "address",
                    "name": "priceFeed",
                    "type": "address"
                }
            ],
            "name": "setPriceFeed",
            "outputs": [],
            "stateMutability": "nonpayable",
            "type": "function"
        },
        {
            "inputs": [
                {
                    "internalType": "uint256",
                    "name": "positionId",
                    "type": "uint256"
                },
                {
                    "internalType": "uint256",
                    "name": "amountToStrengthen",
                    "type": "uint256"
                }
            ],
            "name": "strengthenPosition",
            "outputs": [],
            "stateMutability": "nonpayable",
            "type": "function"
        },
        {
            "inputs": [
                {
                    "internalType": "address",
                    "name": "newOwner",
                    "type": "address"
                }
            ],
            "name": "transferOwnership",
            "outputs": [],
            "stateMutability": "nonpayable",
            "type": "function"
        },
        {
            "inputs": [
                {
                    "internalType": "uint64",
                    "name": "vaultId",
                    "type": "uint64"
                },
                {
                    "internalType": "uint256",
                    "name": "amount",
                    "type": "uint256"
                }
            ],
            "name": "withdrawCollateral",
            "outputs": [],
            "stateMutability": "nonpayable",
            "type": "function"
        }
    ],
    "bytecode": "60a06040523480156200001157600080fd5b50604051620022a1380380620022a18339810160408190526200003491620000a1565b6200003f3362000051565b6001600160a01b0316608052620000d3565b600080546001600160a01b038381166001600160a01b0319831681178455604051919092169283917f8be0079c531659141344cd1fd0a4f28419497f9722a3daafe3b4186f6b6457e09190a35050565b600060208284031215620000b457600080fd5b81516001600160a01b0381168114620000cc57600080fd5b9392505050565b6080516121886200011960003960008181610903015281816110e6015281816111da015281816112180152818161135701528181611a1d0152611af701526121886000f3fe60806040526004361061019c5760003560e01c80639a2ab8f4116100ec578063cd4e9ffa1161008a578063e5c97b2611610064578063e5c97b2614610534578063ee8b6aea14610554578063f2fde38b14610574578063f971f9261461059457600080fd5b8063cd4e9ffa146104e1578063cf635c7114610501578063d3c4e4a61461052157600080fd5b8063a8aba3d1116100c6578063a8aba3d114610435578063ae0b163f14610479578063af55af05146104a1578063cc92d31c146104c157600080fd5b80639a2ab8f41461039b5780639e07b0c8146103bb578063a3b98372146103db57600080fd5b806359345bfe116101595780636f2d72ae116101335780636f2d72ae146102f6578063715018a6146103305780637399fcb2146103455780638da5cb5b1461037d57600080fd5b806359345bfe1461025e57806359b37a7a1461029e5780635cecbe8f146102c057600080fd5b80631970426b146101a1578063428f421d146101d45780634c147e5d146101f657806354d6dc0c14610216578063582cd30a14610229578063589a9e6514610249575b600080fd5b3480156101ad57600080fd5b506101c16101bc366004611dbe565b6105b4565b6040519081526020015b60405180910390f35b3480156101e057600080fd5b506101f46101ef366004611dd9565b610608565b005b34801561020257600080fd5b506101f4610211366004611dfb565b610778565b6101f4610224366004611e2e565b6109cd565b34801561023557600080fd5b506101c1610244366004611e58565b610aab565b34801561025557600080fd5b506007546101c1565b34801561026a57600080fd5b5061028e610279366004611e58565b60009081526008602052604090205460ff1690565b60405190151581526020016101cb565b3480156102aa57600080fd5b506102b3610abc565b6040516101cb9190611e71565b3480156102cc57600080fd5b506101c16102db366004611eca565b6001600160a01b031660009081526006602052604090205490565b34801561030257600080fd5b506101c1610311366004611dbe565b6001600160401b03166000908152600160208190526040909120015490565b34801561033c57600080fd5b506101f4610be6565b34801561035157600080fd5b50610365610360366004611dbe565b610bfa565b6040516001600160a01b0390911681526020016101cb565b34801561038957600080fd5b506000546001600160a01b0316610365565b3480156103a757600080fd5b506102b36103b6366004611eca565b610c1e565b3480156103c757600080fd5b506101f46103d6366004611ee7565b610dce565b3480156103e757600080fd5b506103fb6103f6366004611e58565b610e62565b604080516001600160401b0390961686526001600160a01b039094166020860152928401919091526060830152608082015260a0016101cb565b34801561044157600080fd5b506101c1610450366004611dbe565b6001600160401b0316600090815260016020908152604080832033845260020190915290205490565b34801561048557600080fd5b506002546040516001600160401b0390911681526020016101cb565b3480156104ad57600080fd5b506101c16104bc366004611f1e565b610ed1565b3480156104cd57600080fd5b506103656104dc366004611f3c565b610ee4565b3480156104ed57600080fd5b506101f46104fc366004611e58565b611048565b34801561050d57600080fd5b506101c161051c366004611dd9565b6112c1565b6101f461052f366004611dd9565b6112cd565b34801561054057600080fd5b506101c161054f366004611f1e565b611453565b34801561056057600080fd5b506101f461056f366004611e2e565b61145f565b34801561058057600080fd5b506101f461058f366004611eca565b611564565b3480156105a057600080fd5b506101c16105af366004611e2e565b6115e2565b6000806105c083610bfa565b905060006105f1846001600160401b0316600090815260016020908152604080832033845260020190915290205490565b905060006105ff83836115f8565b95945050505050565b60008281526008602052604081205460ff161515900361063b5760405163082af5c160e31b815260040160405180910390fd5b61064482611620565b60008061065084610e62565b50505091509150336001600160a01b0316816001600160a01b03161461068957604051632192f1c160e11b815260040160405180910390fd5b6001600160401b0382166000908152600160209081526040808320338452600201909152902054838110156106d15760405163434a26d360e11b815260040160405180910390fd5b6001600160401b038316600090815260016020908152604080832033845260020190915281208054869290610707908490611f70565b90915550506000858152600560205260408120600101805486929061072d908490611f83565b909155505060405184815285907fd7366767957b43d165666f69ae6cee8334b7617ba76bbf0b97040a6c68c8de3c906020015b60405180910390a261077185611620565b5050505050565b6001600160401b038316600090815260016020526040902080546001600160a01b03166107b85760405163172c7b0760e31b815260040160405180910390fd5b3360009081526002820160205260409020548311156107ea5760405163434a26d360e11b815260040160405180910390fd5b8054600090610802906001600160a01b0316856115f8565b905082811015610825576040516334001e9760e11b815260040160405180910390fd5b6007546000908152600560209081526040808320338452600286019092528220805491928792610856908490611f70565b90915550508054600160401b33026001600160e01b03199091166001600160401b038816171781556001810185905560028101805485919060009061089c908490611f83565b9091555050336000818152600660209081526040808320600780548254600180820185559387528587200155548452600890925291829020805460ff19169091179055516340c10f1960e01b81526004810191909152602481018590526001600160a01b037f000000000000000000000000000000000000000000000000000000000000000016906340c10f19906044016020604051808303816000875af115801561094c573d6000803e3d6000fd5b505050506040513d601f19601f820116820180604052508101906109709190611f96565b5060075460408051878152602081018790523392917ffb617c13a5b4b052ee893903dca019ab1611dfef1b20f7acb7a5bfe008c10260910160405180910390a3600780549060006109c083611fb8565b9190505550505050505050565b6001600160401b038216600090815260016020526040902080546001600160a01b03169081610a0f5760405163172c7b0760e31b815260040160405180910390fd5b82816001016000828254610a239190611f83565b909155505033600090815260028201602052604081208054859290610a49908490611f83565b90915550610a6490506001600160a01b03831633308661165d565b60405183815233906001600160401b038616907f88ab94ac53260736800da5d05843e504231e9d57ea5cc4ce6479495a52fa296d906020015b60405180910390a350505050565b6000610ab6826116ce565b92915050565b6060806000805b600754811015610b4357600081815260086020526040902054819060ff1615610b30576000610af1826116ce565b9050670de0b6b3a76400008111610b2e5781858581518110610b1557610b15611fd1565b602090810291909101015283610b2a81611fb8565b9450505b505b5080610b3b81611fb8565b915050610ac3565b506000816001600160401b03811115610b5e57610b5e611fe7565b604051908082528060200260200182016040528015610b87578160200160208202803683370190505b50905060005b82811015610bde57838181518110610ba757610ba7611fd1565b6020026020010151828281518110610bc157610bc1611fd1565b602090810291909101015280610bd681611fb8565b915050610b8d565b509392505050565b610bee611751565b610bf860006117ab565b565b6001600160401b03166000908152600160205260409020546001600160a01b031690565b60606000610c41836001600160a01b031660009081526006602052604090205490565b90506000816001600160401b03811115610c5d57610c5d611fe7565b604051908082528060200260200182016040528015610c86578160200160208202803683370190505b5090506000805b83811015610d29576001600160a01b0386166000908152600660205260408120805483908110610cbf57610cbf611fd1565b6000918252602080832090910154808352600890915260409091205490915060ff161515600103610d165780848481518110610cfd57610cfd611fd1565b602090810291909101015282610d1281611fb8565b9350505b5080610d2181611fb8565b915050610c8d565b506000816001600160401b03811115610d4457610d44611fe7565b604051908082528060200260200182016040528015610d6d578160200160208202803683370190505b50905060005b82811015610dc457838181518110610d8d57610d8d611fd1565b6020026020010151828281518110610da757610da7611fd1565b602090810291909101015280610dbc81611fb8565b915050610d73565b5095945050505050565b610dd6611751565b6000610de183610bfa565b90506001600160a01b038116610e0a5760405163172c7b0760e31b815260040160405180910390fd5b6001600160a01b038216610e3157604051630351152960e51b815260040160405180910390fd5b6001600160a01b0390811660009081526004602052604090208054919092166001600160a01b031990911617905550565b6000818152600560209081526040808320815160808101835281546001600160401b038116808352600160401b9091046001600160a01b0316948201859052600183015493820184905260029092015460608201819052919490610ec5876116ce565b91505091939590929450565b6000610edd83836117fb565b9392505050565b6000610eee611751565b6001600160a01b038316610f1557604051632a09dafd60e21b815260040160405180910390fd5b6001600160a01b038216610f3c57604051630351152960e51b815260040160405180910390fd5b6001600160a01b03831660009081526003602052604090205460ff161515600103610f7a57604051636a480d3d60e11b815260040160405180910390fd5b600280546001600160401b03908116600090815260016020908152604080832080546001600160a01b03199081166001600160a01b038b811691821790935585526004909352908320805490921690871617905582549091169190610fde83611ffd565b82546101009290920a6001600160401b038181021990931691831602179091556002546040516001600160a01b0387168152911691507f36e47edc28251381035fffb017f7ed5a7669d0110d64a8f640755053b6eaeb9e9060200160405180910390a25090919050565b60008181526008602052604081205460ff161515900361107b5760405163082af5c160e31b815260040160405180910390fd5b61108481611620565b60008060008061109385610e62565b509350935093509350336001600160a01b0316836001600160a01b0316146110ce57604051632192f1c160e11b815260040160405180910390fd5b6040516370a0823160e01b81523360048201526000907f00000000000000000000000000000000000000000000000000000000000000006001600160a01b0316906370a0823190602401602060405180830381865afa158015611135573d6000803e3d6000fd5b505050506040513d601f19601f820116820180604052508101906111599190612023565b90508082111561117c5760405163434a26d360e11b815260040160405180910390fd5b6001600160401b0385166000908152600160209081526040808320338452600201909152812080548592906111b2908490611f83565b90915550506000868152600860205260409020805460ff191690556112026001600160a01b037f00000000000000000000000000000000000000000000000000000000000000001633308561165d565b604051630852cd8d60e31b8152600481018390527f00000000000000000000000000000000000000000000000000000000000000006001600160a01b0316906342966c6890602401600060405180830381600087803b15801561126457600080fd5b505af1158015611278573d6000803e3d6000fd5b505060408051868152602081018690523393508992507f7c8eeaba4f689d5914bf29cd47c5f2ac3f31d7bb5611141f72d52abb72e31219910160405180910390a3505050505050565b6000610edd83836118bb565b60008281526008602052604081205460ff16151590036113005760405163082af5c160e31b815260040160405180910390fd5b600080600061130e85610e62565b9450945050509250670de0b6b3a764000081111561133f57604051632d93ea0960e01b815260040160405180910390fd5b6040516370a0823160e01b81523360048201526000907f00000000000000000000000000000000000000000000000000000000000000006001600160a01b0316906370a0823190602401602060405180830381865afa1580156113a6573d6000803e3d6000fd5b505050506040513d601f19601f820116820180604052508101906113ca9190612023565b9050848110156113ed5760405163434a26d360e11b815260040160405180910390fd5b60006113f885610bfa565b90506000611406828461190e565b905060006064611417600a8461203c565b6114219190612053565b90508588101561143c5761143789848a846119cc565b611448565b61144889848a84611a91565b505050505050505050565b6000610edd838361190e565b6001600160401b038216600090815260016020526040902080546001600160a01b031690816114a15760405163172c7b0760e31b815260040160405180910390fd5b3360009081526002820160205260409020548311156114d35760405163434a26d360e11b815260040160405180910390fd5b828160010160008282546114e79190611f70565b90915550503360009081526002820160205260408120805485929061150d908490611f70565b9091555061152790506001600160a01b0383163385611b75565b60405183815233906001600160401b038616907f8a0f58c85f1d4d1b0ade36da583547225f3590aed319248f30fd0a8c7ee6364890602001610a9d565b61156c611751565b6001600160a01b0381166115d65760405162461bcd60e51b815260206004820152602660248201527f4f776e61626c653a206e6577206f776e657220697320746865207a65726f206160448201526564647265737360d01b60648201526084015b60405180910390fd5b6115df816117ab565b50565b6000806115ee84610bfa565b905060006105ff82855b60008061160584846117fb565b90506000606461161683602d61203c565b6105ff9190612053565b600061162b826116ce565b9050670de0b6b3a764000081101561165957604051600162dff28f60e01b0319815260040160405180910390fd5b5050565b6040516001600160a01b03808516602483015283166044820152606481018290526116c89085906323b872dd60e01b906084015b60408051601f198184030181529190526020810180516001600160e01b03166001600160e01b031990931692909217909152611baa565b50505050565b6000818152600560209081526040808320815160808101835281546001600160401b038116808352600160401b9091046001600160a01b03169482019490945260018201549281019290925260020154606082015290829061172f90610bfa565b905060006117418284604001516117fb565b90506105ff8360600151826118bb565b6000546001600160a01b03163314610bf85760405162461bcd60e51b815260206004820181905260248201527f4f776e61626c653a2063616c6c6572206973206e6f7420746865206f776e657260448201526064016115cd565b600080546001600160a01b038381166001600160a01b0319831681178455604051919092169283917f8be0079c531659141344cd1fd0a4f28419497f9722a3daafe3b4186f6b6457e09190a35050565b6001600160a01b0382811660009081526004602081905260408083205490516315d0e4b560e11b815293169083018190529091829073__$4b4b24b934ba135b77a5e4d6fc9929059d$__90632ba1c96a9060240160a060405180830381865af415801561186c573d6000803e3d6000fd5b505050506040513d601f19601f82011682018060405250810190611890919061208f565b505050915050670de0b6b3a764000084826402540be4006118b1919061203c565b611616919061203c565b6000826000036118ce5750600019610ab6565b600060646118dd60328561203c565b6118e79190612053565b9050836118fc82670de0b6b3a764000061203c565b6119069190612053565b949350505050565b6001600160a01b0382811660009081526004602081905260408083205490516315d0e4b560e11b815293169083018190529091829073__$4b4b24b934ba135b77a5e4d6fc9929059d$__90632ba1c96a9060240160a060405180830381865af415801561197f573d6000803e3d6000fd5b505050506040513d601f19601f820116820180604052508101906119a3919061208f565b5050509150506402540be400816119ba919061203c565b611616670de0b6b3a76400008661203c565b6000848152600560205260408120600181018054919284926119ef908490611f70565b9250508190555082816002016000828254611a0a9190611f70565b90915550611a4590506001600160a01b037f00000000000000000000000000000000000000000000000000000000000000001633308661165d565b611a596001600160a01b0385163384611b75565b604080518481526020810184905286917f2a88d25c733f34474d815ec1285d7ffde0e4683cf6103f395f576f4877bf56c29101610760565b600084815260056020526040812060018101805491928492611ab4908490611f70565b9250508190555082816002016000828254611acf9190611f70565b90915550506000858152600860205260409020805460ff19169055611b1f6001600160a01b037f00000000000000000000000000000000000000000000000000000000000000001633308661165d565b611b336001600160a01b0385163384611b75565b604080518481526020810184905286917f67276cf92c22de2778b20eacc85c6bd70bfa0dd7834e0be2729d0e3175d57554910160405180910390a25050505050565b6040516001600160a01b038316602482015260448101829052611ba590849063a9059cbb60e01b90606401611691565b505050565b6000611bff826040518060400160405280602081526020017f5361666545524332303a206c6f772d6c6576656c2063616c6c206661696c6564815250856001600160a01b0316611c7f9092919063ffffffff16565b9050805160001480611c20575080806020019051810190611c209190611f96565b611ba55760405162461bcd60e51b815260206004820152602a60248201527f5361666545524332303a204552433230206f7065726174696f6e20646964206e6044820152691bdd081cdd58d8d9595960b21b60648201526084016115cd565b6060611906848460008585600080866001600160a01b03168587604051611ca69190612103565b60006040518083038185875af1925050503d8060008114611ce3576040519150601f19603f3d011682016040523d82523d6000602084013e611ce8565b606091505b5091509150611cf987838387611d04565b979650505050505050565b60608315611d73578251600003611d6c576001600160a01b0385163b611d6c5760405162461bcd60e51b815260206004820152601d60248201527f416464726573733a2063616c6c20746f206e6f6e2d636f6e747261637400000060448201526064016115cd565b5081611906565b6119068383815115611d885781518083602001fd5b8060405162461bcd60e51b81526004016115cd919061211f565b80356001600160401b0381168114611db957600080fd5b919050565b600060208284031215611dd057600080fd5b610edd82611da2565b60008060408385031215611dec57600080fd5b50508035926020909101359150565b600080600060608486031215611e1057600080fd5b611e1984611da2565b95602085013595506040909401359392505050565b60008060408385031215611e4157600080fd5b611e4a83611da2565b946020939093013593505050565b600060208284031215611e6a57600080fd5b5035919050565b6020808252825182820181905260009190848201906040850190845b81811015611ea957835183529284019291840191600101611e8d565b50909695505050505050565b6001600160a01b03811681146115df57600080fd5b600060208284031215611edc57600080fd5b8135610edd81611eb5565b60008060408385031215611efa57600080fd5b611f0383611da2565b91506020830135611f1381611eb5565b809150509250929050565b60008060408385031215611f3157600080fd5b8235611e4a81611eb5565b60008060408385031215611f4f57600080fd5b8235611f0381611eb5565b634e487b7160e01b600052601160045260246000fd5b81810381811115610ab657610ab6611f5a565b80820180821115610ab657610ab6611f5a565b600060208284031215611fa857600080fd5b81518015158114610edd57600080fd5b600060018201611fca57611fca611f5a565b5060010190565b634e487b7160e01b600052603260045260246000fd5b634e487b7160e01b600052604160045260246000fd5b60006001600160401b0380831681810361201957612019611f5a565b6001019392505050565b60006020828403121561203557600080fd5b5051919050565b8082028115828204841417610ab657610ab6611f5a565b60008261207057634e487b7160e01b600052601260045260246000fd5b500490565b805169ffffffffffffffffffff81168114611db957600080fd5b600080600080600060a086880312156120a757600080fd5b6120b086612075565b94506020860151935060408601519250606086015191506120d360808701612075565b90509295509295909350565b60005b838110156120fa5781810151838201526020016120e2565b50506000910152565b600082516121158184602087016120df565b9190910192915050565b602081526000825180602084015261213e8160408501602087016120df565b601f01601f1916919091016040019291505056fea2646970667358221220e870d6e9b8e462c9559c7660e33bff1515af5e14ea45bb4016b939e80e75444164736f6c63430008130033",
    "sourcePath": "d:/Projects/tc-protocol/smart-contract/src/Engine.sol",
    "compiler": {
        "name": "solc",
        "version": "0.8.19+commit.7dd6d404"
    },
    "functionHashes": {
        "cancelPosition(uint256)": "cd4e9ffa",
        "countPosition(address)": "5cecbe8f",
        "createPosition(uint64,uint256,uint256)": "4c147e5d",
        "createVault(address,address)": "cc92d31c",
        "depositCollateral(uint64,uint256)": "54d6dc0c",
        "getAllLowHealthFactorPositions()": "59b37a7a",
        "getAllPositionExists(address)": "9a2ab8f4",
        "getAmountCanBorrow(uint64)": "1970426b",
        "getCalculateAmountToBorrow(uint64,uint256)": "f971f926",
        "getCalculateHealthFactor(uint256,uint256)": "cf635c71",
        "getCollateralAmountFromValue(address,uint256)": "e5c97b26",
        "getCollateralDeposited(uint64)": "a8aba3d1",
        "getCurrentPositionId()": "589a9e65",
        "getCurrentVaultId()": "ae0b163f",
        "getPositionHealthFactor(uint256)": "582cd30a",
        "getUSDValueOfCollateral(address,uint256)": "af55af05",
        "getUniquePosition(uint256)": "a3b98372",
        "getUniquePositionExists(uint256)": "59345bfe",
        "getVaultAddress(uint64)": "7399fcb2",
        "getVaultBalance(uint64)": "6f2d72ae",
        "liquidatePosition(uint256,uint256)": "d3c4e4a6",
        "owner()": "8da5cb5b",
        "renounceOwnership()": "715018a6",
        "setPriceFeed(uint64,address)": "9e07b0c8",
        "strengthenPosition(uint256,uint256)": "428f421d",
        "transferOwnership(address)": "f2fde38b",
        "withdrawCollateral(uint64,uint256)": "ee8b6aea"
    },
    "gasEstimates": {
        "creation": {
            "codeDepositCost": "1716800",
            "executionCost": "infinite",
            "totalCost": "infinite"
        },
        "external": {
            "cancelPosition(uint256)": "infinite",
            "countPosition(address)": "2610",
            "createPosition(uint64,uint256,uint256)": "infinite",
            "createVault(address,address)": "infinite",
            "depositCollateral(uint64,uint256)": "infinite",
            "getAllLowHealthFactorPositions()": "infinite",
            "getAllPositionExists(address)": "infinite",
            "getAmountCanBorrow(uint64)": "infinite",
            "getCalculateAmountToBorrow(uint64,uint256)": "infinite",
            "getCalculateHealthFactor(uint256,uint256)": "infinite",
            "getCollateralAmountFromValue(address,uint256)": "infinite",
            "getCollateralDeposited(uint64)": "2648",
            "getCurrentPositionId()": "2415",
            "getCurrentVaultId()": "2368",
            "getPositionHealthFactor(uint256)": "infinite",
            "getUSDValueOfCollateral(address,uint256)": "infinite",
            "getUniquePosition(uint256)": "infinite",
            "getUniquePositionExists(uint256)": "2496",
            "getVaultAddress(uint64)": "2677",
            "getVaultBalance(uint64)": "2583",
            "liquidatePosition(uint256,uint256)": "infinite",
            "owner()": "2442",
            "renounceOwnership()": "infinite",
            "setPriceFeed(uint64,address)": "29291",
            "strengthenPosition(uint256,uint256)": "infinite",
            "transferOwnership(address)": "infinite",
            "withdrawCollateral(uint64,uint256)": "infinite"
        },
        "internal": {
            "_calculateAmountCanBorrow(address,uint256)": "infinite",
            "_calculateHealthFactor(uint256,uint256)": "infinite",
            "_fullyLiquidation(uint256,address,uint256,uint256)": "infinite",
            "_getCollateralAmountFormValue(address,uint256)": "infinite",
            "_getUSDValue(address,uint256)": "infinite",
            "_healthFactor(uint256)": "infinite",
            "_partialLiquidation(uint256,address,uint256,uint256)": "infinite",
            "_revertIfHealthFactorIsBroken(uint256)": "infinite"
        }
    }
}