{
    "contractName": "Engine",
    "abi": [
        {
            "inputs": [
                {
                    "internalType": "address",
                    "name": "_tcUSD",
                    "type": "address"
                }
            ],
            "stateMutability": "nonpayable",
            "type": "constructor"
        },
        {
            "inputs": [],
            "name": "Engine__InsufficientBalance",
            "type": "error"
        },
        {
            "inputs": [],
            "name": "Engine__InvalidCollateral",
            "type": "error"
        },
        {
            "inputs": [],
            "name": "Engine__InvalidPriceFeed",
            "type": "error"
        },
        {
            "inputs": [],
            "name": "Engine__InvalidVault",
            "type": "error"
        },
        {
            "anonymous": false,
            "inputs": [
                {
                    "indexed": true,
                    "internalType": "uint64",
                    "name": "vaultId",
                    "type": "uint64"
                },
                {
                    "indexed": true,
                    "internalType": "address",
                    "name": "from",
                    "type": "address"
                },
                {
                    "indexed": false,
                    "internalType": "uint256",
                    "name": "amount",
                    "type": "uint256"
                }
            ],
            "name": "Deposit",
            "type": "event"
        },
        {
            "anonymous": false,
            "inputs": [
                {
                    "indexed": true,
                    "internalType": "address",
                    "name": "previousOwner",
                    "type": "address"
                },
                {
                    "indexed": true,
                    "internalType": "address",
                    "name": "newOwner",
                    "type": "address"
                }
            ],
            "name": "OwnershipTransferred",
            "type": "event"
        },
        {
            "anonymous": false,
            "inputs": [
                {
                    "indexed": true,
                    "internalType": "uint64",
                    "name": "vaultId",
                    "type": "uint64"
                },
                {
                    "indexed": false,
                    "internalType": "address",
                    "name": "collateralAddress",
                    "type": "address"
                }
            ],
            "name": "VaultCreated",
            "type": "event"
        },
        {
            "inputs": [
                {
                    "internalType": "uint64",
                    "name": "vaultId",
                    "type": "uint64"
                },
                {
                    "internalType": "uint256",
                    "name": "collateralAmount",
                    "type": "uint256"
                },
                {
                    "internalType": "uint256",
                    "name": "amountToBorrow",
                    "type": "uint256"
                }
            ],
            "name": "createPosition",
            "outputs": [],
            "stateMutability": "nonpayable",
            "type": "function"
        },
        {
            "inputs": [
                {
                    "internalType": "contract IERC20",
                    "name": "collateral",
                    "type": "address"
                },
                {
                    "internalType": "address",
                    "name": "priceFeed",
                    "type": "address"
                }
            ],
            "name": "createVault",
            "outputs": [
                {
                    "internalType": "address",
                    "name": "",
                    "type": "address"
                }
            ],
            "stateMutability": "nonpayable",
            "type": "function"
        },
        {
            "inputs": [
                {
                    "internalType": "uint64",
                    "name": "vaultId",
                    "type": "uint64"
                },
                {
                    "internalType": "uint256",
                    "name": "amount",
                    "type": "uint256"
                }
            ],
            "name": "deposit",
            "outputs": [],
            "stateMutability": "payable",
            "type": "function"
        },
        {
            "inputs": [],
            "name": "getCurrentVaultId",
            "outputs": [
                {
                    "internalType": "uint64",
                    "name": "",
                    "type": "uint64"
                }
            ],
            "stateMutability": "view",
            "type": "function"
        },
        {
            "inputs": [
                {
                    "internalType": "uint64",
                    "name": "vaultId",
                    "type": "uint64"
                }
            ],
            "name": "getVaultAddress",
            "outputs": [
                {
                    "internalType": "address",
                    "name": "",
                    "type": "address"
                }
            ],
            "stateMutability": "view",
            "type": "function"
        },
        {
            "inputs": [
                {
                    "internalType": "uint64",
                    "name": "vaultId",
                    "type": "uint64"
                }
            ],
            "name": "getVaultBalance",
            "outputs": [
                {
                    "internalType": "uint256",
                    "name": "",
                    "type": "uint256"
                }
            ],
            "stateMutability": "view",
            "type": "function"
        },
        {
            "inputs": [],
            "name": "owner",
            "outputs": [
                {
                    "internalType": "address",
                    "name": "",
                    "type": "address"
                }
            ],
            "stateMutability": "view",
            "type": "function"
        },
        {
            "inputs": [],
            "name": "renounceOwnership",
            "outputs": [],
            "stateMutability": "nonpayable",
            "type": "function"
        },
        {
            "inputs": [
                {
                    "internalType": "address",
                    "name": "newOwner",
                    "type": "address"
                }
            ],
            "name": "transferOwnership",
            "outputs": [],
            "stateMutability": "nonpayable",
            "type": "function"
        }
    ],
    "bytecode": "60a060405234801561001057600080fd5b50604051610ca5380380610ca583398101604081905261002f91610099565b61003833610049565b6001600160a01b03166080526100c9565b600080546001600160a01b038381166001600160a01b0319831681178455604051919092169283917f8be0079c531659141344cd1fd0a4f28419497f9722a3daafe3b4186f6b6457e09190a35050565b6000602082840312156100ab57600080fd5b81516001600160a01b03811681146100c257600080fd5b9392505050565b608051610bc16100e460003960006102fe0152610bc16000f3fe6080604052600436106100865760003560e01c80637399fcb2116100595780637399fcb2146101235780638da5cb5b1461017b578063ae0b163f14610199578063cc92d31c146101c2578063f2fde38b146101e257600080fd5b80634c147e5d1461008b5780636170c4b1146100ad5780636f2d72ae146100c0578063715018a61461010e575b600080fd5b34801561009757600080fd5b506100ab6100a63660046109a9565b610202565b005b6100ab6100bb3660046109dc565b61037d565b3480156100cc57600080fd5b506100fb6100db366004610a06565b67ffffffffffffffff166000908152600160208190526040909120015490565b6040519081526020015b60405180910390f35b34801561011a57600080fd5b506100ab61045c565b34801561012f57600080fd5b5061016361013e366004610a06565b67ffffffffffffffff166000908152600160205260409020546001600160a01b031690565b6040516001600160a01b039091168152602001610105565b34801561018757600080fd5b506000546001600160a01b0316610163565b3480156101a557600080fd5b5060025460405167ffffffffffffffff9091168152602001610105565b3480156101ce57600080fd5b506101636101dd366004610a3d565b610470565b3480156101ee57600080fd5b506100ab6101fd366004610a76565b61059a565b67ffffffffffffffff831660009081526001602090815260408083208054338552600282019093529220546001600160a01b039091169190826102585760405163172c7b0760e31b815260040160405180910390fd5b808510156102795760405163434a26d360e11b815260040160405180910390fd5b60065460009081526005602052604090206102948683610aa9565b81546801000000000000000033026001600160e01b031990911667ffffffffffffffff8a16171782556001820187905560028201805491935086916000906102dd908490610abc565b90915550506040516340c10f1960e01b8152336004820152602481018690527f00000000000000000000000000000000000000000000000000000000000000006001600160a01b0316906340c10f19906044016020604051808303816000875af115801561034f573d6000803e3d6000fd5b505050506040513d601f19601f820116820180604052508101906103739190610acf565b5050505050505050565b67ffffffffffffffff8216600090815260016020526040902080546001600160a01b031690816103c05760405163172c7b0760e31b815260040160405180910390fd5b828160010160008282546103d49190610abc565b9091555050336000908152600282016020526040812080548592906103fa908490610abc565b9091555061041590506001600160a01b038316333086610618565b604051838152339067ffffffffffffffff8616907f88ab94ac53260736800da5d05843e504231e9d57ea5cc4ce6479495a52fa296d9060200160405180910390a350505050565b610464610678565b61046e60006106d2565b565b600061047a610678565b6001600160a01b0383166104a157604051632a09dafd60e21b815260040160405180910390fd5b6001600160a01b0382166104c857604051630351152960e51b815260040160405180910390fd5b6002805467ffffffffffffffff908116600090815260016020908152604080832080546001600160a01b03199081166001600160a01b038b81169182179093558552600490935290832080549092169087161790558254909116919061052d83610af1565b82546101009290920a67ffffffffffffffff8181021990931691831602179091556002546040516001600160a01b0387168152911691507f36e47edc28251381035fffb017f7ed5a7669d0110d64a8f640755053b6eaeb9e9060200160405180910390a250815b92915050565b6105a2610678565b6001600160a01b03811661060c5760405162461bcd60e51b815260206004820152602660248201527f4f776e61626c653a206e6577206f776e657220697320746865207a65726f206160448201526564647265737360d01b60648201526084015b60405180910390fd5b610615816106d2565b50565b604080516001600160a01b0385811660248301528416604482015260648082018490528251808303909101815260849091019091526020810180516001600160e01b03166323b872dd60e01b179052610672908590610722565b50505050565b6000546001600160a01b0316331461046e5760405162461bcd60e51b815260206004820181905260248201527f4f776e61626c653a2063616c6c6572206973206e6f7420746865206f776e65726044820152606401610603565b600080546001600160a01b038381166001600160a01b0319831681178455604051919092169283917f8be0079c531659141344cd1fd0a4f28419497f9722a3daafe3b4186f6b6457e09190a35050565b6000610777826040518060400160405280602081526020017f5361666545524332303a206c6f772d6c6576656c2063616c6c206661696c6564815250856001600160a01b03166107fc9092919063ffffffff16565b90508051600014806107985750808060200190518101906107989190610acf565b6107f75760405162461bcd60e51b815260206004820152602a60248201527f5361666545524332303a204552433230206f7065726174696f6e20646964206e6044820152691bdd081cdd58d8d9595960b21b6064820152608401610603565b505050565b606061080b8484600085610813565b949350505050565b6060824710156108745760405162461bcd60e51b815260206004820152602660248201527f416464726573733a20696e73756666696369656e742062616c616e636520666f6044820152651c8818d85b1b60d21b6064820152608401610603565b600080866001600160a01b031685876040516108909190610b3c565b60006040518083038185875af1925050503d80600081146108cd576040519150601f19603f3d011682016040523d82523d6000602084013e6108d2565b606091505b50915091506108e3878383876108ee565b979650505050505050565b6060831561095d578251600003610956576001600160a01b0385163b6109565760405162461bcd60e51b815260206004820152601d60248201527f416464726573733a2063616c6c20746f206e6f6e2d636f6e74726163740000006044820152606401610603565b508161080b565b61080b83838151156109725781518083602001fd5b8060405162461bcd60e51b81526004016106039190610b58565b803567ffffffffffffffff811681146109a457600080fd5b919050565b6000806000606084860312156109be57600080fd5b6109c78461098c565b95602085013595506040909401359392505050565b600080604083850312156109ef57600080fd5b6109f88361098c565b946020939093013593505050565b600060208284031215610a1857600080fd5b610a218261098c565b9392505050565b6001600160a01b038116811461061557600080fd5b60008060408385031215610a5057600080fd5b8235610a5b81610a28565b91506020830135610a6b81610a28565b809150509250929050565b600060208284031215610a8857600080fd5b8135610a2181610a28565b634e487b7160e01b600052601160045260246000fd5b8181038181111561059457610594610a93565b8082018082111561059457610594610a93565b600060208284031215610ae157600080fd5b81518015158114610a2157600080fd5b600067ffffffffffffffff808316818103610b0e57610b0e610a93565b6001019392505050565b60005b83811015610b33578181015183820152602001610b1b565b50506000910152565b60008251610b4e818460208701610b18565b9190910192915050565b6020815260008251806020840152610b77816040850160208701610b18565b601f01601f1916919091016040019291505056fea26469706673582212208ea7a5520c70744560556be7178f3d3be7d09d45db1b9285099d4d3896efb5f264736f6c63430008130033",
    "sourcePath": "d:/Projects/tc-protocol/smart-contract/src/Engine.sol",
    "compiler": {
        "name": "solc",
        "version": "0.8.19+commit.7dd6d404"
    },
    "functionHashes": {
        "createPosition(uint64,uint256,uint256)": "4c147e5d",
        "createVault(address,address)": "cc92d31c",
        "deposit(uint64,uint256)": "6170c4b1",
        "getCurrentVaultId()": "ae0b163f",
        "getVaultAddress(uint64)": "7399fcb2",
        "getVaultBalance(uint64)": "6f2d72ae",
        "owner()": "8da5cb5b",
        "renounceOwnership()": "715018a6",
        "transferOwnership(address)": "f2fde38b"
    },
    "gasEstimates": {
        "creation": {
            "codeDepositCost": "601800",
            "executionCost": "infinite",
            "totalCost": "infinite"
        },
        "external": {
            "createPosition(uint64,uint256,uint256)": "infinite",
            "createVault(address,address)": "infinite",
            "deposit(uint64,uint256)": "infinite",
            "getCurrentVaultId()": "2333",
            "getVaultAddress(uint64)": "2552",
            "getVaultBalance(uint64)": "2559",
            "owner()": "2353",
            "renounceOwnership()": "infinite",
            "transferOwnership(address)": "infinite"
        },
        "internal": {
            "_getUSDValue(address,uint256)": "infinite"
        }
    }
}