{
    "contractName": "Engine",
    "abi": [
        {
            "inputs": [
                {
                    "internalType": "address",
                    "name": "_tcUSD",
                    "type": "address"
                }
            ],
            "stateMutability": "nonpayable",
            "type": "constructor"
        },
        {
            "inputs": [],
            "name": "Engine__BreaksHealthFactor",
            "type": "error"
        },
        {
            "inputs": [],
            "name": "Engine__CollateralExisted",
            "type": "error"
        },
        {
            "inputs": [],
            "name": "Engine__ExceedsAllowedAmount",
            "type": "error"
        },
        {
            "inputs": [],
            "name": "Engine__HealthFactorOk",
            "type": "error"
        },
        {
            "inputs": [],
            "name": "Engine__InsufficientBalance",
            "type": "error"
        },
        {
            "inputs": [],
            "name": "Engine__InvalidCollateral",
            "type": "error"
        },
        {
            "inputs": [],
            "name": "Engine__InvalidPriceFeed",
            "type": "error"
        },
        {
            "inputs": [],
            "name": "Engine__InvalidVault",
            "type": "error"
        },
        {
            "inputs": [],
            "name": "Engine__OnlyPositionOwner",
            "type": "error"
        },
        {
            "inputs": [],
            "name": "Engine__PositionNotExists",
            "type": "error"
        },
        {
            "anonymous": false,
            "inputs": [
                {
                    "indexed": true,
                    "internalType": "uint64",
                    "name": "vaultId",
                    "type": "uint64"
                },
                {
                    "indexed": true,
                    "internalType": "address",
                    "name": "from",
                    "type": "address"
                },
                {
                    "indexed": false,
                    "internalType": "uint256",
                    "name": "amount",
                    "type": "uint256"
                }
            ],
            "name": "Deposit",
            "type": "event"
        },
        {
            "anonymous": false,
            "inputs": [
                {
                    "indexed": true,
                    "internalType": "address",
                    "name": "previousOwner",
                    "type": "address"
                },
                {
                    "indexed": true,
                    "internalType": "address",
                    "name": "newOwner",
                    "type": "address"
                }
            ],
            "name": "OwnershipTransferred",
            "type": "event"
        },
        {
            "anonymous": false,
            "inputs": [
                {
                    "indexed": true,
                    "internalType": "uint256",
                    "name": "positionId",
                    "type": "uint256"
                },
                {
                    "indexed": true,
                    "internalType": "address",
                    "name": "owner",
                    "type": "address"
                },
                {
                    "indexed": false,
                    "internalType": "uint256",
                    "name": "amountCollateral",
                    "type": "uint256"
                },
                {
                    "indexed": false,
                    "internalType": "uint256",
                    "name": "amountToBorrow",
                    "type": "uint256"
                }
            ],
            "name": "PositionCanceled",
            "type": "event"
        },
        {
            "anonymous": false,
            "inputs": [
                {
                    "indexed": true,
                    "internalType": "uint256",
                    "name": "positionId",
                    "type": "uint256"
                },
                {
                    "indexed": true,
                    "internalType": "address",
                    "name": "owner",
                    "type": "address"
                },
                {
                    "indexed": false,
                    "internalType": "uint256",
                    "name": "amountCollateral",
                    "type": "uint256"
                },
                {
                    "indexed": false,
                    "internalType": "uint256",
                    "name": "amountToBorrow",
                    "type": "uint256"
                }
            ],
            "name": "PositionCreated",
            "type": "event"
        },
        {
            "anonymous": false,
            "inputs": [
                {
                    "indexed": true,
                    "internalType": "uint256",
                    "name": "positionId",
                    "type": "uint256"
                },
                {
                    "indexed": false,
                    "internalType": "uint256",
                    "name": "amountToLiquidate",
                    "type": "uint256"
                },
                {
                    "indexed": false,
                    "internalType": "uint256",
                    "name": "amountLiquidatorEarned",
                    "type": "uint256"
                }
            ],
            "name": "PositionLiquidated",
            "type": "event"
        },
        {
            "anonymous": false,
            "inputs": [
                {
                    "indexed": true,
                    "internalType": "uint256",
                    "name": "positionId",
                    "type": "uint256"
                },
                {
                    "indexed": false,
                    "internalType": "uint256",
                    "name": "amountCollateralToStrengthen",
                    "type": "uint256"
                }
            ],
            "name": "StrengthenPositon",
            "type": "event"
        },
        {
            "anonymous": false,
            "inputs": [
                {
                    "indexed": true,
                    "internalType": "uint64",
                    "name": "vaultId",
                    "type": "uint64"
                },
                {
                    "indexed": false,
                    "internalType": "address",
                    "name": "collateralAddress",
                    "type": "address"
                }
            ],
            "name": "VaultCreated",
            "type": "event"
        },
        {
            "anonymous": false,
            "inputs": [
                {
                    "indexed": true,
                    "internalType": "uint64",
                    "name": "vaultId",
                    "type": "uint64"
                },
                {
                    "indexed": true,
                    "internalType": "address",
                    "name": "to",
                    "type": "address"
                },
                {
                    "indexed": false,
                    "internalType": "uint256",
                    "name": "amount",
                    "type": "uint256"
                }
            ],
            "name": "Withdraw",
            "type": "event"
        },
        {
            "inputs": [
                {
                    "internalType": "uint256",
                    "name": "positionId",
                    "type": "uint256"
                }
            ],
            "name": "cancelPosition",
            "outputs": [],
            "stateMutability": "nonpayable",
            "type": "function"
        },
        {
            "inputs": [
                {
                    "internalType": "address",
                    "name": "owner",
                    "type": "address"
                }
            ],
            "name": "countPosition",
            "outputs": [
                {
                    "internalType": "uint256",
                    "name": "",
                    "type": "uint256"
                }
            ],
            "stateMutability": "view",
            "type": "function"
        },
        {
            "inputs": [
                {
                    "internalType": "uint64",
                    "name": "vaultId",
                    "type": "uint64"
                },
                {
                    "internalType": "uint256",
                    "name": "amountCollateral",
                    "type": "uint256"
                },
                {
                    "internalType": "uint256",
                    "name": "amountToBorrow",
                    "type": "uint256"
                }
            ],
            "name": "createPosition",
            "outputs": [],
            "stateMutability": "nonpayable",
            "type": "function"
        },
        {
            "inputs": [
                {
                    "internalType": "contract IERC20",
                    "name": "collateral",
                    "type": "address"
                },
                {
                    "internalType": "address",
                    "name": "priceFeed",
                    "type": "address"
                }
            ],
            "name": "createVault",
            "outputs": [
                {
                    "internalType": "address",
                    "name": "",
                    "type": "address"
                }
            ],
            "stateMutability": "nonpayable",
            "type": "function"
        },
        {
            "inputs": [
                {
                    "internalType": "uint64",
                    "name": "vaultId",
                    "type": "uint64"
                },
                {
                    "internalType": "uint256",
                    "name": "amount",
                    "type": "uint256"
                }
            ],
            "name": "depositCollateral",
            "outputs": [],
            "stateMutability": "payable",
            "type": "function"
        },
        {
            "inputs": [],
            "name": "getAllLowHealthFactorPositions",
            "outputs": [
                {
                    "internalType": "uint256[]",
                    "name": "",
                    "type": "uint256[]"
                }
            ],
            "stateMutability": "view",
            "type": "function"
        },
        {
            "inputs": [
                {
                    "internalType": "address",
                    "name": "owner",
                    "type": "address"
                }
            ],
            "name": "getAllPositionExists",
            "outputs": [
                {
                    "internalType": "uint256[]",
                    "name": "",
                    "type": "uint256[]"
                }
            ],
            "stateMutability": "view",
            "type": "function"
        },
        {
            "inputs": [
                {
                    "internalType": "uint64",
                    "name": "vaultId",
                    "type": "uint64"
                }
            ],
            "name": "getAmountCanBorrow",
            "outputs": [
                {
                    "internalType": "uint256",
                    "name": "",
                    "type": "uint256"
                }
            ],
            "stateMutability": "view",
            "type": "function"
        },
        {
            "inputs": [
                {
                    "internalType": "uint64",
                    "name": "vaultId",
                    "type": "uint64"
                },
                {
                    "internalType": "uint256",
                    "name": "collateralAmount",
                    "type": "uint256"
                }
            ],
            "name": "getCalculateAmountToBorrow",
            "outputs": [
                {
                    "internalType": "uint256",
                    "name": "",
                    "type": "uint256"
                }
            ],
            "stateMutability": "view",
            "type": "function"
        },
        {
            "inputs": [
                {
                    "internalType": "uint64",
                    "name": "vaultId",
                    "type": "uint64"
                }
            ],
            "name": "getCollateralDeposited",
            "outputs": [
                {
                    "internalType": "uint256",
                    "name": "",
                    "type": "uint256"
                }
            ],
            "stateMutability": "view",
            "type": "function"
        },
        {
            "inputs": [],
            "name": "getCurrentPositionId",
            "outputs": [
                {
                    "internalType": "uint256",
                    "name": "",
                    "type": "uint256"
                }
            ],
            "stateMutability": "view",
            "type": "function"
        },
        {
            "inputs": [],
            "name": "getCurrentVaultId",
            "outputs": [
                {
                    "internalType": "uint64",
                    "name": "",
                    "type": "uint64"
                }
            ],
            "stateMutability": "view",
            "type": "function"
        },
        {
            "inputs": [
                {
                    "internalType": "uint256",
                    "name": "positionId",
                    "type": "uint256"
                }
            ],
            "name": "getPositionHealthFactor",
            "outputs": [
                {
                    "internalType": "uint256",
                    "name": "",
                    "type": "uint256"
                }
            ],
            "stateMutability": "view",
            "type": "function"
        },
        {
            "inputs": [
                {
                    "internalType": "address",
                    "name": "collateral",
                    "type": "address"
                },
                {
                    "internalType": "uint256",
                    "name": "amount",
                    "type": "uint256"
                }
            ],
            "name": "getUSDValueOfCollateral",
            "outputs": [
                {
                    "internalType": "uint256",
                    "name": "",
                    "type": "uint256"
                }
            ],
            "stateMutability": "view",
            "type": "function"
        },
        {
            "inputs": [
                {
                    "internalType": "uint256",
                    "name": "positionId",
                    "type": "uint256"
                }
            ],
            "name": "getUniquePosition",
            "outputs": [
                {
                    "internalType": "uint64",
                    "name": "vaultId",
                    "type": "uint64"
                },
                {
                    "internalType": "address",
                    "name": "owner",
                    "type": "address"
                },
                {
                    "internalType": "uint256",
                    "name": "amountCollateral",
                    "type": "uint256"
                },
                {
                    "internalType": "uint256",
                    "name": "amountToBorrow",
                    "type": "uint256"
                },
                {
                    "internalType": "uint256",
                    "name": "healthFactor",
                    "type": "uint256"
                }
            ],
            "stateMutability": "view",
            "type": "function"
        },
        {
            "inputs": [
                {
                    "internalType": "uint256",
                    "name": "positionId",
                    "type": "uint256"
                }
            ],
            "name": "getUniquePositionExists",
            "outputs": [
                {
                    "internalType": "bool",
                    "name": "",
                    "type": "bool"
                }
            ],
            "stateMutability": "view",
            "type": "function"
        },
        {
            "inputs": [
                {
                    "internalType": "uint64",
                    "name": "vaultId",
                    "type": "uint64"
                }
            ],
            "name": "getVaultAddress",
            "outputs": [
                {
                    "internalType": "address",
                    "name": "",
                    "type": "address"
                }
            ],
            "stateMutability": "view",
            "type": "function"
        },
        {
            "inputs": [
                {
                    "internalType": "uint64",
                    "name": "vaultId",
                    "type": "uint64"
                }
            ],
            "name": "getVaultBalance",
            "outputs": [
                {
                    "internalType": "uint256",
                    "name": "",
                    "type": "uint256"
                }
            ],
            "stateMutability": "view",
            "type": "function"
        },
        {
            "inputs": [
                {
                    "internalType": "uint256",
                    "name": "positionId",
                    "type": "uint256"
                },
                {
                    "internalType": "uint256",
                    "name": "amountTcUSDToCover",
                    "type": "uint256"
                }
            ],
            "name": "liquidatePosition",
            "outputs": [],
            "stateMutability": "payable",
            "type": "function"
        },
        {
            "inputs": [],
            "name": "owner",
            "outputs": [
                {
                    "internalType": "address",
                    "name": "",
                    "type": "address"
                }
            ],
            "stateMutability": "view",
            "type": "function"
        },
        {
            "inputs": [],
            "name": "renounceOwnership",
            "outputs": [],
            "stateMutability": "nonpayable",
            "type": "function"
        },
        {
            "inputs": [
                {
                    "internalType": "uint256",
                    "name": "positionId",
                    "type": "uint256"
                },
                {
                    "internalType": "uint256",
                    "name": "amountToStrengthen",
                    "type": "uint256"
                }
            ],
            "name": "strengthenPosition",
            "outputs": [],
            "stateMutability": "nonpayable",
            "type": "function"
        },
        {
            "inputs": [
                {
                    "internalType": "address",
                    "name": "newOwner",
                    "type": "address"
                }
            ],
            "name": "transferOwnership",
            "outputs": [],
            "stateMutability": "nonpayable",
            "type": "function"
        },
        {
            "inputs": [
                {
                    "internalType": "uint64",
                    "name": "vaultId",
                    "type": "uint64"
                },
                {
                    "internalType": "uint256",
                    "name": "amount",
                    "type": "uint256"
                }
            ],
            "name": "withdrawCollateral",
            "outputs": [],
            "stateMutability": "nonpayable",
            "type": "function"
        }
    ],
    "bytecode": "60a06040523480156200001157600080fd5b5060405162001fe438038062001fe48339810160408190526200003491620000a1565b6200003f3362000051565b6001600160a01b0316608052620000d3565b600080546001600160a01b038381166001600160a01b0319831681178455604051919092169283917f8be0079c531659141344cd1fd0a4f28419497f9722a3daafe3b4186f6b6457e09190a35050565b600060208284031215620000b457600080fd5b81516001600160a01b0381168114620000cc57600080fd5b9392505050565b608051611ed2620001126000396000818161084801528181610f9001528181611084015281816110c2015281816111bb01526118450152611ed26000f3fe60806040526004361061014b5760003560e01c80638da5cb5b116100b6578063cc92d31c1161006f578063cc92d31c14610450578063cd4e9ffa14610470578063d3c4e4a614610490578063ee8b6aea146104a3578063f2fde38b146104c3578063f971f926146104e357600080fd5b80638da5cb5b1461032c5780639a2ab8f41461034a578063a3b983721461036a578063a8aba3d1146103c4578063ae0b163f14610408578063af55af051461043057600080fd5b806359345bfe1161010857806359345bfe1461020d57806359b37a7a1461024d5780635cecbe8f1461026f5780636f2d72ae146102a5578063715018a6146102df5780637399fcb2146102f457600080fd5b80631970426b14610150578063428f421d146101835780634c147e5d146101a557806354d6dc0c146101c5578063582cd30a146101d8578063589a9e65146101f8575b600080fd5b34801561015c57600080fd5b5061017061016b366004611b24565b610503565b6040519081526020015b60405180910390f35b34801561018f57600080fd5b506101a361019e366004611b3f565b610557565b005b3480156101b157600080fd5b506101a36101c0366004611b61565b6106bd565b6101a36101d3366004611b94565b610912565b3480156101e457600080fd5b506101706101f3366004611bbe565b6109f0565b34801561020457600080fd5b50600754610170565b34801561021957600080fd5b5061023d610228366004611bbe565b60009081526008602052604090205460ff1690565b604051901515815260200161017a565b34801561025957600080fd5b50610262610a01565b60405161017a9190611bd7565b34801561027b57600080fd5b5061017061028a366004611c30565b6001600160a01b031660009081526006602052604090205490565b3480156102b157600080fd5b506101706102c0366004611b24565b6001600160401b03166000908152600160208190526040909120015490565b3480156102eb57600080fd5b506101a3610b24565b34801561030057600080fd5b5061031461030f366004611b24565b610b38565b6040516001600160a01b03909116815260200161017a565b34801561033857600080fd5b506000546001600160a01b0316610314565b34801561035657600080fd5b50610262610365366004611c30565b610b5c565b34801561037657600080fd5b5061038a610385366004611bbe565b610d0c565b604080516001600160401b0390961686526001600160a01b039094166020860152928401919091526060830152608082015260a00161017a565b3480156103d057600080fd5b506101706103df366004611b24565b6001600160401b0316600090815260016020908152604080832033845260020190915290205490565b34801561041457600080fd5b506002546040516001600160401b03909116815260200161017a565b34801561043c57600080fd5b5061017061044b366004611c4d565b610d7b565b34801561045c57600080fd5b5061031461046b366004611c6b565b610d8e565b34801561047c57600080fd5b506101a361048b366004611bbe565b610ef2565b6101a361049e366004611b3f565b61116b565b3480156104af57600080fd5b506101a36104be366004611b94565b6112a6565b3480156104cf57600080fd5b506101a36104de366004611c30565b6113ab565b3480156104ef57600080fd5b506101706104fe366004611b94565b611429565b60008061050f83610b38565b90506000610540846001600160401b0316600090815260016020908152604080832033845260020190915290205490565b9050600061054e838361143f565b95945050505050565b60008281526008602052604081205460ff161515900361058a5760405163082af5c160e31b815260040160405180910390fd5b61059382611467565b60008061059f84610d0c565b50505091509150336001600160a01b0316816001600160a01b0316146105d857604051632192f1c160e11b815260040160405180910390fd5b6001600160401b0382166000908152600160209081526040808320338452600201909152902054838110156106205760405163434a26d360e11b815260040160405180910390fd5b6001600160401b038316600090815260016020908152604080832033845260020190915281208054869290610656908490611cba565b90915550506000858152600560205260408120600101805486929061067c908490611ccd565b909155505060405184815285907fd7366767957b43d165666f69ae6cee8334b7617ba76bbf0b97040a6c68c8de3c9060200160405180910390a25050505050565b6001600160401b038316600090815260016020526040902080546001600160a01b03166106fd5760405163172c7b0760e31b815260040160405180910390fd5b33600090815260028201602052604090205483111561072f5760405163434a26d360e11b815260040160405180910390fd5b8054600090610747906001600160a01b03168561143f565b90508281101561076a576040516334001e9760e11b815260040160405180910390fd5b600754600090815260056020908152604080832033845260028601909252822080549192879261079b908490611cba565b90915550508054600160401b33026001600160e01b03199091166001600160401b03881617178155600181018590556002810180548591906000906107e1908490611ccd565b9091555050336000818152600660209081526040808320600780548254600180820185559387528587200155548452600890925291829020805460ff19169091179055516340c10f1960e01b81526004810191909152602481018590526001600160a01b037f000000000000000000000000000000000000000000000000000000000000000016906340c10f19906044016020604051808303816000875af1158015610891573d6000803e3d6000fd5b505050506040513d601f19601f820116820180604052508101906108b59190611ce0565b5060075460408051878152602081018790523392917ffb617c13a5b4b052ee893903dca019ab1611dfef1b20f7acb7a5bfe008c10260910160405180910390a36007805490600061090583611d02565b9190505550505050505050565b6001600160401b038216600090815260016020526040902080546001600160a01b031690816109545760405163172c7b0760e31b815260040160405180910390fd5b828160010160008282546109689190611ccd565b90915550503360009081526002820160205260408120805485929061098e908490611ccd565b909155506109a990506001600160a01b03831633308661149d565b60405183815233906001600160401b038616907f88ab94ac53260736800da5d05843e504231e9d57ea5cc4ce6479495a52fa296d906020015b60405180910390a350505050565b60006109fb8261150e565b92915050565b6060806000805b600754811015610a8157600081815260086020526040902054819060ff1615610a6e576000610a368261150e565b905060018111610a6c5781858581518110610a5357610a53611d1b565b602090810291909101015283610a6881611d02565b9450505b505b5080610a7981611d02565b915050610a08565b506000816001600160401b03811115610a9c57610a9c611d31565b604051908082528060200260200182016040528015610ac5578160200160208202803683370190505b50905060005b82811015610b1c57838181518110610ae557610ae5611d1b565b6020026020010151828281518110610aff57610aff611d1b565b602090810291909101015280610b1481611d02565b915050610acb565b509392505050565b610b2c611591565b610b3660006115eb565b565b6001600160401b03166000908152600160205260409020546001600160a01b031690565b60606000610b7f836001600160a01b031660009081526006602052604090205490565b90506000816001600160401b03811115610b9b57610b9b611d31565b604051908082528060200260200182016040528015610bc4578160200160208202803683370190505b5090506000805b83811015610c67576001600160a01b0386166000908152600660205260408120805483908110610bfd57610bfd611d1b565b6000918252602080832090910154808352600890915260409091205490915060ff161515600103610c545780848481518110610c3b57610c3b611d1b565b602090810291909101015282610c5081611d02565b9350505b5080610c5f81611d02565b915050610bcb565b506000816001600160401b03811115610c8257610c82611d31565b604051908082528060200260200182016040528015610cab578160200160208202803683370190505b50905060005b82811015610d0257838181518110610ccb57610ccb611d1b565b6020026020010151828281518110610ce557610ce5611d1b565b602090810291909101015280610cfa81611d02565b915050610cb1565b5095945050505050565b6000818152600560209081526040808320815160808101835281546001600160401b038116808352600160401b9091046001600160a01b0316948201859052600183015493820184905260029092015460608201819052919490610d6f8761150e565b91505091939590929450565b6000610d87838361163b565b9392505050565b6000610d98611591565b6001600160a01b038316610dbf57604051632a09dafd60e21b815260040160405180910390fd5b6001600160a01b038216610de657604051630351152960e51b815260040160405180910390fd5b6001600160a01b03831660009081526003602052604090205460ff161515600103610e2457604051636a480d3d60e11b815260040160405180910390fd5b600280546001600160401b03908116600090815260016020908152604080832080546001600160a01b03199081166001600160a01b038b811691821790935585526004909352908320805490921690871617905582549091169190610e8883611d47565b82546101009290920a6001600160401b038181021990931691831602179091556002546040516001600160a01b0387168152911691507f36e47edc28251381035fffb017f7ed5a7669d0110d64a8f640755053b6eaeb9e9060200160405180910390a25090919050565b60008181526008602052604081205460ff1615159003610f255760405163082af5c160e31b815260040160405180910390fd5b610f2e81611467565b600080600080610f3d85610d0c565b509350935093509350336001600160a01b0316836001600160a01b031614610f7857604051632192f1c160e11b815260040160405180910390fd5b6040516370a0823160e01b81523360048201526000907f00000000000000000000000000000000000000000000000000000000000000006001600160a01b0316906370a0823190602401602060405180830381865afa158015610fdf573d6000803e3d6000fd5b505050506040513d601f19601f820116820180604052508101906110039190611d6d565b9050808211156110265760405163434a26d360e11b815260040160405180910390fd5b6001600160401b03851660009081526001602090815260408083203384526002019091528120805485929061105c908490611ccd565b90915550506000868152600860205260409020805460ff191690556110ac6001600160a01b037f00000000000000000000000000000000000000000000000000000000000000001633308561149d565b604051630852cd8d60e31b8152600481018390527f00000000000000000000000000000000000000000000000000000000000000006001600160a01b0316906342966c6890602401600060405180830381600087803b15801561110e57600080fd5b505af1158015611122573d6000803e3d6000fd5b505060408051868152602081018690523393508992507f7c8eeaba4f689d5914bf29cd47c5f2ac3f31d7bb5611141f72d52abb72e31219910160405180910390a3505050505050565b600080600061117985610d0c565b945094505050925060018111156111a357604051632d93ea0960e01b815260040160405180910390fd5b6040516370a0823160e01b81523360048201526000907f00000000000000000000000000000000000000000000000000000000000000006001600160a01b0316906370a0823190602401602060405180830381865afa15801561120a573d6000803e3d6000fd5b505050506040513d601f19601f8201168201806040525081019061122e9190611d6d565b9050848110156112515760405163434a26d360e11b815260040160405180910390fd5b600061125c85610b38565b9050600061126a82846116fb565b90506000606461127b600a84611d86565b6112859190611d9d565b90508582101561129b5761129b89848a846117b9565b505050505050505050565b6001600160401b038216600090815260016020526040902080546001600160a01b031690816112e85760405163172c7b0760e31b815260040160405180910390fd5b33600090815260028201602052604090205483111561131a5760405163434a26d360e11b815260040160405180910390fd5b8281600101600082825461132e9190611cba565b909155505033600090815260028201602052604081208054859290611354908490611cba565b9091555061136e90506001600160a01b0383163385611888565b60405183815233906001600160401b038616907f8a0f58c85f1d4d1b0ade36da583547225f3590aed319248f30fd0a8c7ee63648906020016109e2565b6113b3611591565b6001600160a01b03811661141d5760405162461bcd60e51b815260206004820152602660248201527f4f776e61626c653a206e6577206f776e657220697320746865207a65726f206160448201526564647265737360d01b60648201526084015b60405180910390fd5b611426816115eb565b50565b60008061143584610b38565b9050600061054e82855b60008061144c848461163b565b90506000606461145d83602d611d86565b61054e9190611d9d565b60006114728261150e565b9050600181101561149957604051600162dff28f60e01b0319815260040160405180910390fd5b5050565b6040516001600160a01b03808516602483015283166044820152606481018290526115089085906323b872dd60e01b906084015b60408051601f198184030181529190526020810180516001600160e01b03166001600160e01b0319909316929092179091526118bd565b50505050565b6000818152600560209081526040808320815160808101835281546001600160401b038116808352600160401b9091046001600160a01b03169482019490945260018201549281019290925260020154606082015290829061156f90610b38565b9050600061158182846040015161163b565b905061054e836060015182611992565b6000546001600160a01b03163314610b365760405162461bcd60e51b815260206004820181905260248201527f4f776e61626c653a2063616c6c6572206973206e6f7420746865206f776e65726044820152606401611414565b600080546001600160a01b038381166001600160a01b0319831681178455604051919092169283917f8be0079c531659141344cd1fd0a4f28419497f9722a3daafe3b4186f6b6457e09190a35050565b6001600160a01b0382811660009081526004602081905260408083205490516315d0e4b560e11b815293169083018190529091829073__$4b4b24b934ba135b77a5e4d6fc9929059d$__90632ba1c96a9060240160a060405180830381865af41580156116ac573d6000803e3d6000fd5b505050506040513d601f19601f820116820180604052508101906116d09190611dd9565b505050915050670de0b6b3a7640000846402540be400836116f19190611d86565b61145d9190611d86565b6001600160a01b0382811660009081526004602081905260408083205490516315d0e4b560e11b815293169083018190529091829073__$4b4b24b934ba135b77a5e4d6fc9929059d$__90632ba1c96a9060240160a060405180830381865af415801561176c573d6000803e3d6000fd5b505050506040513d601f19601f820116820180604052508101906117909190611dd9565b5050509150506402540be400816117a79190611d86565b61145d670de0b6b3a764000086611d86565b600084815260056020908152604091829020825160808101845281546001600160401b0381168252600160401b90046001600160a01b03169281019290925260018101549282018381526002909101546060830152909183919061181e908390611cba565b905250606081018051849190611835908390611cba565b90525061186d6001600160a01b037f00000000000000000000000000000000000000000000000000000000000000001633308661149d565b6118816001600160a01b0385163384611888565b5050505050565b6040516001600160a01b0383166024820152604481018290526118b890849063a9059cbb60e01b906064016114d1565b505050565b6000611912826040518060400160405280602081526020017f5361666545524332303a206c6f772d6c6576656c2063616c6c206661696c6564815250856001600160a01b03166119e59092919063ffffffff16565b90508051600014806119335750808060200190518101906119339190611ce0565b6118b85760405162461bcd60e51b815260206004820152602a60248201527f5361666545524332303a204552433230206f7065726174696f6e20646964206e6044820152691bdd081cdd58d8d9595960b21b6064820152608401611414565b6000826000036119a557506000196109fb565b600060646119b4603285611d86565b6119be9190611d9d565b9050836119d3670de0b6b3a764000083611d86565b6119dd9190611d9d565b949350505050565b60606119dd848460008585600080866001600160a01b03168587604051611a0c9190611e4d565b60006040518083038185875af1925050503d8060008114611a49576040519150601f19603f3d011682016040523d82523d6000602084013e611a4e565b606091505b5091509150611a5f87838387611a6a565b979650505050505050565b60608315611ad9578251600003611ad2576001600160a01b0385163b611ad25760405162461bcd60e51b815260206004820152601d60248201527f416464726573733a2063616c6c20746f206e6f6e2d636f6e74726163740000006044820152606401611414565b50816119dd565b6119dd8383815115611aee5781518083602001fd5b8060405162461bcd60e51b81526004016114149190611e69565b80356001600160401b0381168114611b1f57600080fd5b919050565b600060208284031215611b3657600080fd5b610d8782611b08565b60008060408385031215611b5257600080fd5b50508035926020909101359150565b600080600060608486031215611b7657600080fd5b611b7f84611b08565b95602085013595506040909401359392505050565b60008060408385031215611ba757600080fd5b611bb083611b08565b946020939093013593505050565b600060208284031215611bd057600080fd5b5035919050565b6020808252825182820181905260009190848201906040850190845b81811015611c0f57835183529284019291840191600101611bf3565b50909695505050505050565b6001600160a01b038116811461142657600080fd5b600060208284031215611c4257600080fd5b8135610d8781611c1b565b60008060408385031215611c6057600080fd5b8235611bb081611c1b565b60008060408385031215611c7e57600080fd5b8235611c8981611c1b565b91506020830135611c9981611c1b565b809150509250929050565b634e487b7160e01b600052601160045260246000fd5b818103818111156109fb576109fb611ca4565b808201808211156109fb576109fb611ca4565b600060208284031215611cf257600080fd5b81518015158114610d8757600080fd5b600060018201611d1457611d14611ca4565b5060010190565b634e487b7160e01b600052603260045260246000fd5b634e487b7160e01b600052604160045260246000fd5b60006001600160401b03808316818103611d6357611d63611ca4565b6001019392505050565b600060208284031215611d7f57600080fd5b5051919050565b80820281158282048414176109fb576109fb611ca4565b600082611dba57634e487b7160e01b600052601260045260246000fd5b500490565b805169ffffffffffffffffffff81168114611b1f57600080fd5b600080600080600060a08688031215611df157600080fd5b611dfa86611dbf565b9450602086015193506040860151925060608601519150611e1d60808701611dbf565b90509295509295909350565b60005b83811015611e44578181015183820152602001611e2c565b50506000910152565b60008251611e5f818460208701611e29565b9190910192915050565b6020815260008251806020840152611e88816040850160208701611e29565b601f01601f1916919091016040019291505056fea2646970667358221220fd600b0c818390de309783037a442d2ac04152267a81118ea00b6a59f0e7953d64736f6c63430008130033",
    "sourcePath": "d:/Projects/tc-protocol/smart-contract/src/Engine.sol",
    "compiler": {
        "name": "solc",
        "version": "0.8.19+commit.7dd6d404"
    },
    "functionHashes": {
        "cancelPosition(uint256)": "cd4e9ffa",
        "countPosition(address)": "5cecbe8f",
        "createPosition(uint64,uint256,uint256)": "4c147e5d",
        "createVault(address,address)": "cc92d31c",
        "depositCollateral(uint64,uint256)": "54d6dc0c",
        "getAllLowHealthFactorPositions()": "59b37a7a",
        "getAllPositionExists(address)": "9a2ab8f4",
        "getAmountCanBorrow(uint64)": "1970426b",
        "getCalculateAmountToBorrow(uint64,uint256)": "f971f926",
        "getCollateralDeposited(uint64)": "a8aba3d1",
        "getCurrentPositionId()": "589a9e65",
        "getCurrentVaultId()": "ae0b163f",
        "getPositionHealthFactor(uint256)": "582cd30a",
        "getUSDValueOfCollateral(address,uint256)": "af55af05",
        "getUniquePosition(uint256)": "a3b98372",
        "getUniquePositionExists(uint256)": "59345bfe",
        "getVaultAddress(uint64)": "7399fcb2",
        "getVaultBalance(uint64)": "6f2d72ae",
        "liquidatePosition(uint256,uint256)": "d3c4e4a6",
        "owner()": "8da5cb5b",
        "renounceOwnership()": "715018a6",
        "strengthenPosition(uint256,uint256)": "428f421d",
        "transferOwnership(address)": "f2fde38b",
        "withdrawCollateral(uint64,uint256)": "ee8b6aea"
    },
    "gasEstimates": {
        "creation": {
            "codeDepositCost": "1578000",
            "executionCost": "infinite",
            "totalCost": "infinite"
        },
        "external": {
            "cancelPosition(uint256)": "infinite",
            "countPosition(address)": "2587",
            "createPosition(uint64,uint256,uint256)": "infinite",
            "createVault(address,address)": "infinite",
            "depositCollateral(uint64,uint256)": "infinite",
            "getAllLowHealthFactorPositions()": "infinite",
            "getAllPositionExists(address)": "infinite",
            "getAmountCanBorrow(uint64)": "infinite",
            "getCalculateAmountToBorrow(uint64,uint256)": "infinite",
            "getCollateralDeposited(uint64)": "2692",
            "getCurrentPositionId()": "2415",
            "getCurrentVaultId()": "2412",
            "getPositionHealthFactor(uint256)": "infinite",
            "getUSDValueOfCollateral(address,uint256)": "infinite",
            "getUniquePosition(uint256)": "infinite",
            "getUniquePositionExists(uint256)": "2473",
            "getVaultAddress(uint64)": "2721",
            "getVaultBalance(uint64)": "2627",
            "liquidatePosition(uint256,uint256)": "infinite",
            "owner()": "2354",
            "renounceOwnership()": "infinite",
            "strengthenPosition(uint256,uint256)": "infinite",
            "transferOwnership(address)": "infinite",
            "withdrawCollateral(uint64,uint256)": "infinite"
        },
        "internal": {
            "_calculateAmountCanBorrow(address,uint256)": "infinite",
            "_calculateHealthFactor(uint256,uint256)": "infinite",
            "_fullLiquidation(uint256,uint256)": "infinite",
            "_getCollateralAmountFormValue(address,uint256)": "infinite",
            "_getUSDValue(address,uint256)": "infinite",
            "_healthFactor(uint256)": "infinite",
            "_partialLiquidation(uint256,address,uint256,uint256)": "infinite",
            "_revertIfHealthFactorIsBroken(uint256)": "infinite"
        }
    }
}