{
    "contractName": "TcUSD",
    "abi": [
        {
            "inputs": [],
            "stateMutability": "nonpayable",
            "type": "constructor"
        },
        {
            "inputs": [],
            "name": "TcUSD__AmountMustBeMoreThanZero",
            "type": "error"
        },
        {
            "inputs": [],
            "name": "TcUSD__BurnAmountExceedsBalance",
            "type": "error"
        },
        {
            "inputs": [],
            "name": "TcUSD__NotZeroAddress",
            "type": "error"
        },
        {
            "anonymous": false,
            "inputs": [
                {
                    "indexed": true,
                    "internalType": "address",
                    "name": "owner",
                    "type": "address"
                },
                {
                    "indexed": true,
                    "internalType": "address",
                    "name": "spender",
                    "type": "address"
                },
                {
                    "indexed": false,
                    "internalType": "uint256",
                    "name": "value",
                    "type": "uint256"
                }
            ],
            "name": "Approval",
            "type": "event"
        },
        {
            "anonymous": false,
            "inputs": [
                {
                    "indexed": true,
                    "internalType": "address",
                    "name": "previousOwner",
                    "type": "address"
                },
                {
                    "indexed": true,
                    "internalType": "address",
                    "name": "newOwner",
                    "type": "address"
                }
            ],
            "name": "OwnershipTransferred",
            "type": "event"
        },
        {
            "anonymous": false,
            "inputs": [
                {
                    "indexed": true,
                    "internalType": "address",
                    "name": "from",
                    "type": "address"
                },
                {
                    "indexed": true,
                    "internalType": "address",
                    "name": "to",
                    "type": "address"
                },
                {
                    "indexed": false,
                    "internalType": "uint256",
                    "name": "value",
                    "type": "uint256"
                }
            ],
            "name": "Transfer",
            "type": "event"
        },
        {
            "inputs": [
                {
                    "internalType": "address",
                    "name": "owner",
                    "type": "address"
                },
                {
                    "internalType": "address",
                    "name": "spender",
                    "type": "address"
                }
            ],
            "name": "allowance",
            "outputs": [
                {
                    "internalType": "uint256",
                    "name": "",
                    "type": "uint256"
                }
            ],
            "stateMutability": "view",
            "type": "function"
        },
        {
            "inputs": [
                {
                    "internalType": "address",
                    "name": "spender",
                    "type": "address"
                },
                {
                    "internalType": "uint256",
                    "name": "amount",
                    "type": "uint256"
                }
            ],
            "name": "approve",
            "outputs": [
                {
                    "internalType": "bool",
                    "name": "",
                    "type": "bool"
                }
            ],
            "stateMutability": "nonpayable",
            "type": "function"
        },
        {
            "inputs": [
                {
                    "internalType": "address",
                    "name": "account",
                    "type": "address"
                }
            ],
            "name": "balanceOf",
            "outputs": [
                {
                    "internalType": "uint256",
                    "name": "",
                    "type": "uint256"
                }
            ],
            "stateMutability": "view",
            "type": "function"
        },
        {
            "inputs": [
                {
                    "internalType": "uint256",
                    "name": "_amount",
                    "type": "uint256"
                }
            ],
            "name": "burn",
            "outputs": [],
            "stateMutability": "nonpayable",
            "type": "function"
        },
        {
            "inputs": [
                {
                    "internalType": "address",
                    "name": "account",
                    "type": "address"
                },
                {
                    "internalType": "uint256",
                    "name": "amount",
                    "type": "uint256"
                }
            ],
            "name": "burnFrom",
            "outputs": [],
            "stateMutability": "nonpayable",
            "type": "function"
        },
        {
            "inputs": [],
            "name": "decimals",
            "outputs": [
                {
                    "internalType": "uint8",
                    "name": "",
                    "type": "uint8"
                }
            ],
            "stateMutability": "view",
            "type": "function"
        },
        {
            "inputs": [
                {
                    "internalType": "address",
                    "name": "spender",
                    "type": "address"
                },
                {
                    "internalType": "uint256",
                    "name": "subtractedValue",
                    "type": "uint256"
                }
            ],
            "name": "decreaseAllowance",
            "outputs": [
                {
                    "internalType": "bool",
                    "name": "",
                    "type": "bool"
                }
            ],
            "stateMutability": "nonpayable",
            "type": "function"
        },
        {
            "inputs": [],
            "name": "getTotalSupply",
            "outputs": [
                {
                    "internalType": "uint256",
                    "name": "",
                    "type": "uint256"
                }
            ],
            "stateMutability": "view",
            "type": "function"
        },
        {
            "inputs": [
                {
                    "internalType": "address",
                    "name": "spender",
                    "type": "address"
                },
                {
                    "internalType": "uint256",
                    "name": "addedValue",
                    "type": "uint256"
                }
            ],
            "name": "increaseAllowance",
            "outputs": [
                {
                    "internalType": "bool",
                    "name": "",
                    "type": "bool"
                }
            ],
            "stateMutability": "nonpayable",
            "type": "function"
        },
        {
            "inputs": [
                {
                    "internalType": "address",
                    "name": "_to",
                    "type": "address"
                },
                {
                    "internalType": "uint256",
                    "name": "_amount",
                    "type": "uint256"
                }
            ],
            "name": "mint",
            "outputs": [
                {
                    "internalType": "bool",
                    "name": "",
                    "type": "bool"
                }
            ],
            "stateMutability": "nonpayable",
            "type": "function"
        },
        {
            "inputs": [],
            "name": "name",
            "outputs": [
                {
                    "internalType": "string",
                    "name": "",
                    "type": "string"
                }
            ],
            "stateMutability": "view",
            "type": "function"
        },
        {
            "inputs": [],
            "name": "owner",
            "outputs": [
                {
                    "internalType": "address",
                    "name": "",
                    "type": "address"
                }
            ],
            "stateMutability": "view",
            "type": "function"
        },
        {
            "inputs": [],
            "name": "renounceOwnership",
            "outputs": [],
            "stateMutability": "nonpayable",
            "type": "function"
        },
        {
            "inputs": [],
            "name": "symbol",
            "outputs": [
                {
                    "internalType": "string",
                    "name": "",
                    "type": "string"
                }
            ],
            "stateMutability": "view",
            "type": "function"
        },
        {
            "inputs": [],
            "name": "totalSupply",
            "outputs": [
                {
                    "internalType": "uint256",
                    "name": "",
                    "type": "uint256"
                }
            ],
            "stateMutability": "view",
            "type": "function"
        },
        {
            "inputs": [
                {
                    "internalType": "address",
                    "name": "to",
                    "type": "address"
                },
                {
                    "internalType": "uint256",
                    "name": "amount",
                    "type": "uint256"
                }
            ],
            "name": "transfer",
            "outputs": [
                {
                    "internalType": "bool",
                    "name": "",
                    "type": "bool"
                }
            ],
            "stateMutability": "nonpayable",
            "type": "function"
        },
        {
            "inputs": [
                {
                    "internalType": "address",
                    "name": "from",
                    "type": "address"
                },
                {
                    "internalType": "address",
                    "name": "to",
                    "type": "address"
                },
                {
                    "internalType": "uint256",
                    "name": "amount",
                    "type": "uint256"
                }
            ],
            "name": "transferFrom",
            "outputs": [
                {
                    "internalType": "bool",
                    "name": "",
                    "type": "bool"
                }
            ],
            "stateMutability": "nonpayable",
            "type": "function"
        },
        {
            "inputs": [
                {
                    "internalType": "address",
                    "name": "newOwner",
                    "type": "address"
                }
            ],
            "name": "transferOwnership",
            "outputs": [],
            "stateMutability": "nonpayable",
            "type": "function"
        }
    ],
    "bytecode": "60806040523480156200001157600080fd5b50604051806040016040528060098152602001682a21902237b63630b960b91b815250604051806040016040528060058152602001641d18d554d160da1b815250816003908162000063919062000190565b50600462000072828262000190565b5050506200008f620000896200009560201b60201c565b62000099565b6200025c565b3390565b600580546001600160a01b038381166001600160a01b0319831681179093556040519116919082907f8be0079c531659141344cd1fd0a4f28419497f9722a3daafe3b4186f6b6457e090600090a35050565b634e487b7160e01b600052604160045260246000fd5b600181811c908216806200011657607f821691505b6020821081036200013757634e487b7160e01b600052602260045260246000fd5b50919050565b601f8211156200018b57600081815260208120601f850160051c81016020861015620001665750805b601f850160051c820191505b81811015620001875782815560010162000172565b5050505b505050565b81516001600160401b03811115620001ac57620001ac620000eb565b620001c481620001bd845462000101565b846200013d565b602080601f831160018114620001fc5760008415620001e35750858301515b600019600386901b1c1916600185901b17855562000187565b600085815260208120601f198616915b828110156200022d578886015182559484019460019091019084016200020c565b50858210156200024c5787850151600019600388901b60f8161c191681555b5050505050600190811b01905550565b610da9806200026c6000396000f3fe608060405234801561001057600080fd5b50600436106101165760003560e01c8063715018a6116100a2578063a457c2d711610071578063a457c2d714610232578063a9059cbb14610245578063c4e41b2214610258578063dd62ed3e14610260578063f2fde38b1461027357600080fd5b8063715018a6146101f457806379cc6790146101fc5780638da5cb5b1461020f57806395d89b411461022a57600080fd5b8063313ce567116100e9578063313ce56714610181578063395093511461019057806340c10f19146101a357806342966c68146101b657806370a08231146101cb57600080fd5b806306fdde031461011b578063095ea7b31461013957806318160ddd1461015c57806323b872dd1461016e575b600080fd5b610123610286565b6040516101309190610bbf565b60405180910390f35b61014c610147366004610c29565b610318565b6040519015158152602001610130565b6002545b604051908152602001610130565b61014c61017c366004610c53565b610332565b60405160128152602001610130565b61014c61019e366004610c29565b610356565b61014c6101b1366004610c29565b610378565b6101c96101c4366004610c8f565b6103f4565b005b6101606101d9366004610ca8565b6001600160a01b031660009081526020819052604090205490565b6101c961046f565b6101c961020a366004610c29565b610483565b6005546040516001600160a01b039091168152602001610130565b61012361049c565b61014c610240366004610c29565b6104ab565b61014c610253366004610c29565b61052b565b600654610160565b61016061026e366004610cca565b610539565b6101c9610281366004610ca8565b610564565b60606003805461029590610cfd565b80601f01602080910402602001604051908101604052809291908181526020018280546102c190610cfd565b801561030e5780601f106102e35761010080835404028352916020019161030e565b820191906000526020600020905b8154815290600101906020018083116102f157829003601f168201915b5050505050905090565b6000336103268185856105dd565b60019150505b92915050565b600033610340858285610702565b61034b85858561077c565b506001949350505050565b6000336103268185856103698383610539565b6103739190610d4d565b6105dd565b6000610382610920565b6001600160a01b0383166103a957604051631614b1bd60e21b815260040160405180910390fd5b600082116103ca576040516316e1224560e01b815260040160405180910390fd5b6103d4838361097a565b81600660008282546103e69190610d4d565b909155506001949350505050565b6103fc610920565b6000610407336101d9565b90506000821161042a576040516316e1224560e01b815260040160405180910390fd5b8181101561044b576040516350495d8f60e11b815260040160405180910390fd5b61045482610a39565b81600660008282546104669190610d60565b90915550505050565b610477610920565b6104816000610a43565b565b61048e823383610702565b6104988282610a95565b5050565b60606004805461029590610cfd565b600033816104b98286610539565b90508381101561051e5760405162461bcd60e51b815260206004820152602560248201527f45524332303a2064656372656173656420616c6c6f77616e63652062656c6f77604482015264207a65726f60d81b60648201526084015b60405180910390fd5b61034b82868684036105dd565b60003361032681858561077c565b6001600160a01b03918216600090815260016020908152604080832093909416825291909152205490565b61056c610920565b6001600160a01b0381166105d15760405162461bcd60e51b815260206004820152602660248201527f4f776e61626c653a206e6577206f776e657220697320746865207a65726f206160448201526564647265737360d01b6064820152608401610515565b6105da81610a43565b50565b6001600160a01b03831661063f5760405162461bcd60e51b8152602060048201526024808201527f45524332303a20617070726f76652066726f6d20746865207a65726f206164646044820152637265737360e01b6064820152608401610515565b6001600160a01b0382166106a05760405162461bcd60e51b815260206004820152602260248201527f45524332303a20617070726f766520746f20746865207a65726f206164647265604482015261737360f01b6064820152608401610515565b6001600160a01b0383811660008181526001602090815260408083209487168084529482529182902085905590518481527f8c5be1e5ebec7d5bd14f71427d1e84f3dd0314c0f7b2291e5b200ac8c7c3b92591015b60405180910390a3505050565b600061070e8484610539565b9050600019811461077657818110156107695760405162461bcd60e51b815260206004820152601d60248201527f45524332303a20696e73756666696369656e7420616c6c6f77616e63650000006044820152606401610515565b61077684848484036105dd565b50505050565b6001600160a01b0383166107e05760405162461bcd60e51b815260206004820152602560248201527f45524332303a207472616e736665722066726f6d20746865207a65726f206164604482015264647265737360d81b6064820152608401610515565b6001600160a01b0382166108425760405162461bcd60e51b815260206004820152602360248201527f45524332303a207472616e7366657220746f20746865207a65726f206164647260448201526265737360e81b6064820152608401610515565b6001600160a01b038316600090815260208190526040902054818110156108ba5760405162461bcd60e51b815260206004820152602660248201527f45524332303a207472616e7366657220616d6f756e7420657863656564732062604482015265616c616e636560d01b6064820152608401610515565b6001600160a01b03848116600081815260208181526040808320878703905593871680835291849020805487019055925185815290927fddf252ad1be2c89b69c2b068fc378daa952ba7f163c4a11628f55a4df523b3ef910160405180910390a3610776565b6005546001600160a01b031633146104815760405162461bcd60e51b815260206004820181905260248201527f4f776e61626c653a2063616c6c6572206973206e6f7420746865206f776e65726044820152606401610515565b6001600160a01b0382166109d05760405162461bcd60e51b815260206004820152601f60248201527f45524332303a206d696e7420746f20746865207a65726f2061646472657373006044820152606401610515565b80600260008282546109e29190610d4d565b90915550506001600160a01b038216600081815260208181526040808320805486019055518481527fddf252ad1be2c89b69c2b068fc378daa952ba7f163c4a11628f55a4df523b3ef910160405180910390a35050565b6105da3382610a95565b600580546001600160a01b038381166001600160a01b0319831681179093556040519116919082907f8be0079c531659141344cd1fd0a4f28419497f9722a3daafe3b4186f6b6457e090600090a35050565b6001600160a01b038216610af55760405162461bcd60e51b815260206004820152602160248201527f45524332303a206275726e2066726f6d20746865207a65726f206164647265736044820152607360f81b6064820152608401610515565b6001600160a01b03821660009081526020819052604090205481811015610b695760405162461bcd60e51b815260206004820152602260248201527f45524332303a206275726e20616d6f756e7420657863656564732062616c616e604482015261636560f01b6064820152608401610515565b6001600160a01b0383166000818152602081815260408083208686039055600280548790039055518581529192917fddf252ad1be2c89b69c2b068fc378daa952ba7f163c4a11628f55a4df523b3ef91016106f5565b600060208083528351808285015260005b81811015610bec57858101830151858201604001528201610bd0565b506000604082860101526040601f19601f8301168501019250505092915050565b80356001600160a01b0381168114610c2457600080fd5b919050565b60008060408385031215610c3c57600080fd5b610c4583610c0d565b946020939093013593505050565b600080600060608486031215610c6857600080fd5b610c7184610c0d565b9250610c7f60208501610c0d565b9150604084013590509250925092565b600060208284031215610ca157600080fd5b5035919050565b600060208284031215610cba57600080fd5b610cc382610c0d565b9392505050565b60008060408385031215610cdd57600080fd5b610ce683610c0d565b9150610cf460208401610c0d565b90509250929050565b600181811c90821680610d1157607f821691505b602082108103610d3157634e487b7160e01b600052602260045260246000fd5b50919050565b634e487b7160e01b600052601160045260246000fd5b8082018082111561032c5761032c610d37565b8181038181111561032c5761032c610d3756fea264697066735822122026ee16fc5c632faf894100cf8499e83a5c2f411eb07b91f87f533584c681ed1064736f6c63430008130033",
    "sourcePath": "d:/Projects/tc-protocol/smart-contract/src/TcUSD.sol",
    "compiler": {
        "name": "solc",
        "version": "0.8.19+commit.7dd6d404"
    },
    "functionHashes": {
        "allowance(address,address)": "dd62ed3e",
        "approve(address,uint256)": "095ea7b3",
        "balanceOf(address)": "70a08231",
        "burn(uint256)": "42966c68",
        "burnFrom(address,uint256)": "79cc6790",
        "decimals()": "313ce567",
        "decreaseAllowance(address,uint256)": "a457c2d7",
        "getTotalSupply()": "c4e41b22",
        "increaseAllowance(address,uint256)": "39509351",
        "mint(address,uint256)": "40c10f19",
        "name()": "06fdde03",
        "owner()": "8da5cb5b",
        "renounceOwnership()": "715018a6",
        "symbol()": "95d89b41",
        "totalSupply()": "18160ddd",
        "transfer(address,uint256)": "a9059cbb",
        "transferFrom(address,address,uint256)": "23b872dd",
        "transferOwnership(address)": "f2fde38b"
    },
    "gasEstimates": {
        "creation": {
            "codeDepositCost": "699400",
            "executionCost": "infinite",
            "totalCost": "infinite"
        },
        "external": {
            "allowance(address,address)": "infinite",
            "approve(address,uint256)": "24652",
            "balanceOf(address)": "2651",
            "burn(uint256)": "79620",
            "burnFrom(address,uint256)": "infinite",
            "decimals()": "200",
            "decreaseAllowance(address,uint256)": "26973",
            "getTotalSupply()": "2358",
            "increaseAllowance(address,uint256)": "infinite",
            "mint(address,uint256)": "infinite",
            "name()": "infinite",
            "owner()": "2368",
            "renounceOwnership()": "infinite",
            "symbol()": "infinite",
            "totalSupply()": "2349",
            "transfer(address,uint256)": "51094",
            "transferFrom(address,address,uint256)": "infinite",
            "transferOwnership(address)": "28446"
        }
    }
}